S01200004D756C746953656E73652E7372656309
S1130000B8500120410A00003D0A00003D0A0000EA
S11300103D0A00003D0A00003D0A00000000000007
S11300200000000000000000000000003D0A000085
S11300303D0A0000000000003D0A00003D0A0000E7
S11300403D0A00003D0A00003D0A00003D0A000090
S11300503D0A00003D0A00003D0A00003D0A000080
S11300603D0A00003D0A00003D0A00003D0A000070
S11300703D0A00003D0A00003D0A00003D0A000060
S11300803D0A00003D0A00003D0A00003D0A000050
S11300903D0A00003D0A00003D0A00003D0A000040
S11300A03D0A00003D0A00003D0A00003D0A000030
S11300B03D0A0000B92C00008D2C000085250000AD
S11300C08D250000952500009D250000A525000034
S11300D03D0A00003D0A00003D0A00003D0A000000
S11300E03D0A00003D0A00003D0A00003D0A0000F0
S11300F000000000812D0000DD300000D53000003C
S1130100CD300000BD3000003D0A00003D0A000073
S11301103D0A00003D0A00003D0A00003D0A0000BF
S11301203D0A00003D0A00003D0A00003D0A0000AF
S11301303D0A00003D0A00003D0A00003D0A00009F
S11301403D0A00003D0A000005310000FD300000BA
S1130150F5300000E53000003D0A00003D0A0000D3
S11301603D0A00003D0A00003D0A00003D0A00006F
S11301703D0A00003D0A00000000000000000000ED
S113018099410000A1410000A9410000B1410000D3
S1130190D92500003D0A00003D0A00003D0A000088
S11301A03D0A00003D0A00003D0A00003D0A00002F
S11301B03D0A00003D0A00003D0A00003D0A00001F
S11301C03D0A00003D0A00003D0A00003D0A00000F
S11301D03D0A00003D0A00003D0A00003D0A0000FF
S11301E03D0A00003D0A00003D0A000031330000D2
S11301F03D0A00003D0A00003D0A00003D0A0000DF
S11302003D0A00003D0A00003D0A00003D0A0000CE
S11302103D0A00003D0A00003D0A00003D0A0000BE
S11302203D0A00003D0A00003D0A00003D0A0000AE
S11302303D0A00003D0A00003D0A00003D0A00009E
S11302403D0A00003D0A00003D0A00003D0A00008E
S11302503D0A00003D0A00003D0A00003D0A00007E
S11302603D0A000010B5054C237833B9044B13B193
S11302700448AFF300800123237010BDC0020020A6
S11302800000000028F500000C4B43B10C480D4958
S113029010B5AFF300800C48036823B910BD0A48B9
S11302A0036833B97047094B002BF7D0BDE8104001
S11302B01847064B002BF5D0184700BF000000007C
S11302C028F50000C402002028F50000000000000A
S11302D010B5044B9847044B9847044BBDE81040B5
S11302E0184700BF750F00000DB100008191000098
S11302F003460848002210B500F8312F064CB3FB22
S1130300F1F201FB1233E35C00F8013D1346002ACD
S1130310F5D110BDDC020020E8BF000037B50E4B5C
S1130320054601A898476B090C49DB01CA18C9584E
S1130330136A14695C400C4001A85C40084B984760
S113034005F01F05012303FA05F5254214BF1846DD
S1130350002003B030BD00BFA511000000800041A3
S1130360B311000010B5074C074B20680749003053
S113037018BF0120A92298472046054BBDE810402C
S1130380184700BF70740020DD1F0000F9BF000093
S1130390454300000FB4F7B508AB534C53F8046B56
S11303A0524D0193337823B903B0BDE8F04004B053
S11303B07047252B10D02046A8470028FBD04C4B73
S11303C0012218684B4B314698472046A84700281D
S11303D0FBD037467E1CE5E773786F2B06F10107E7
S11303E052D01DD8632B39D0642BF3D1019B0A2141
S11303F01A1D1868404B0192984706462046A847A4
S11304000028FBD03D4B30469847394B82B23146E9
S11304101868384B98472046A8470028FBD0D9E7EE
S1130420732B4BD0782BD5D1019B10211A1D186842
S1130430314B0192984706462046A8470028FBD036
S11304402E4B304698472A4B82B231461868294BC6
S113045098472046A8470028FBD0BBE7019B1A1DFC
S11304601B6801928DF803302046A8470028FBD072
S11304701F4B012218681F4B0DF1030198472046BA
S1130480A8470028FBD0A5E7019B08211A1D18687E
S1130490194B0192984706462046A8470028FBD0EE
S11304A0164B30469847124B82B231461868114BAE
S11304B098472046A8470028FBD08BE7019B1A1DCC
S11304C01E6801922046A8470028FBD00B4B3046FB
S11304D09847074B82B231461868064B9847204626
S11304E0A8470028FBD075E7D8740020C51A00007F
S11304F0087F0020ED140000F1020000ADB30000FD
S11305002DE9F04F964D2E788BB0002E40F0A3804D
S1130510944B954F954C4FF4C0529A800220944BC3
S1130520984701233A4631469248A0470128044699
S113053003D09148914B98473E7001232B702220A1
S11305408F4D904F904EA84738704020A84780F0B8
S1130550010030704120A8478C4D3978029780F013
S1130560010028708A4B1022002900F0C180C3F8D2
S11305709820884FDFF88092DFF880821E20B847E9
S1130580C0F3401089F800002E20B847C0F3401093
S113059088F800003E20B8477F4A029BCDF80C90B3
S11305A0C0F34010107018787C4BCDF81080197887
S11305B005928142069307D0794B7A49002818BFE7
S11305C0194679486D4B9847784A039B11781B78F4
S11305D00792994207D0764A72497648002B08BFA1
S11305E01146664B9847744A049B11781B7808920D
S11305F0994207D06E4A6B497048002B08BF1146D8
S11306005E4B9847059B6E4A1B7812789A4207D036
S11306106C4A64496C48002B08BF1146574B9847F5
S11306206A4A09921378002B40F03A813278002A02
S113063000F03681DFF838A1DFF8C4B1644F4FF021
S11306400B09B9F1010956D1002C63DA214661483E
S11306504A4B98475EE0012E17D1424B5E4F434C04
S113066041F602029A800220414B984733463A46AB
S113067000214048A0470128044604D03F4B574876
S1130680984700233B70022358E7022E17D1354BBD
S1130690364C41F601023046514E9A80344B98470D
S11306A00123324600213348A0470128044604D0E0
S11306B0324B4C4898470023337003233EE74A4E9D
S11306C04A4CB31C0193731C0093721E33463921A8
S11306D03820A04700284FEAD07407DA274B444853
S11306E0012198474FF0FF3346F8013C002325E7EA
S11306F0C3F894203DE74FF4FA70D047D8476022FE
S11307005C215B20B847DFF8EC80044668B901231C
S113071088F80030374B194F1B78013B042B71D8F4
S1130720DFE803F09C8D8B9AAD0050225C215B20A6
S1130730B847044608B90523EAE741225C215B2057
S1130740B847044638B968225C215B20B8470446A0
S113075008B90223DCE7002388F8003071E700BF02
S113076079750020001C00433E85002071100000B4
S1130770251200006C74002027C0000095030000BF
S11307801D0300009B7F00204C8500207A7500200B
S11307900080004111B20000757500202C850020F6
S11307A017C0000012C00000E5C000007F750020E3
S11307B01EC00000F7C00000707500200CC10000CE
S11307C05C8200208AD9000022C1000073750020D9
S11307D02160000047C100002D85002052C00000A8
S11307E0358500207DC000009E7F00205954000004
S11307F0A2C00000577C0020717500207482002084
S1130800650300006B48B8476B4F3B78002B40F002
S1130810C5802A78002A00F0C180DFF818A2DFF82A
S113082018924FF00B08B8F1010851D1002C5EDA90
S113083021466248624B984759E06248E3E75C21ED
S11308405B20614B984700284FEAD07402DA0121FB
S11308505E48B8475E48D6E75E48D4E75E4B584FDB
S113086093F829205D4B5C215B20984700284FEAD0
S1130870D07402DA01215A48B8475A48C3E706211E
S11308803220594B4E4F98473220584B98470621F7
S11308903220574B984708B95648B8475648B2E7EC
S11308A03778002FB0D1554A1770002BACD0394699
S11308B032204D4B984732204C4B984739463220D2
S11308C04B4B3F4F984708B94A48B8474C489AE7BA
S11308D04FF4FA70D0474B4BDFF82CB198476022A5
S11308E039213820C84760B901228BF80020464BD3
S11308F0334C1B78013B032B15D8DFE803F041335D
S1130900313F412239213820C847044638B968228A
S113091039213820C847044608B90222E5E70022F5
S11309208BF800207FE73948A047099A3378137081
S11309302B783B70029B069A1B781370039B079AD3
S11309401B781370049B089A1B781370059B1A7804
S11309502F4B1A702F4B01221A700BB0BDE8F08F89
S11309602D48E1E739213820174B9847002803DA4E
S113097001212A48124B98472948D5E72948D3E74B
S1130980154B0F4C93F82A20144B392138209847E3
S1130990011E01DA2448A0472448C5E72A78002A22
S11309A0C3D119490A70002BBFD02148044B984782
S11309B0BBE700BF87C1000041780020EDC2000002
S11309C095030000ABC100001D480000C0C1000039
S11309D0FCC1000011C20000147F00205552000029
S11309E029C2000068C2000045B2000001120000E4
S11309F0D5B100007EC20000A8C20000577C0020D0
S1130A00D4C2000065030000408500202DC300000F
S1130A105C8200207B75002051C3000066C3000087
S1130A20A2C30000B7C30000CFC300000EC400007F
S1130A3024C400002512000021600000704700005B
S1130A4008B50F4A0F4B9A420ED10F4B0F4A0021A3
S1130A50934212D30E4B0F4A23F07F0393600E4B45
S1130A6098470E4B9847FEE70D49043A8B42ECD267
S1130A7052F8040F43F8040BF8E743F8041BE7E7C4
S1130A8028F5000000000020C0020020B8900020DB
S1130A900000000000ED00E095B20000898900002C
S1130AA0B002002030B54A1CC4B2C0F34712164845
S1130AB004F01F0300EBC21007D1184490F8403033
S1130AC003F0FE0380F8403030BDC5185B0895F88C
S1130AD0402002F0FE02184442F0010285F8402052
S1130AE090F8303014F0010F19BF03F00F0343EAFC
S1130AF0011101F00F0103F0F00314BFC9B219434F
S1130B0080F8301030BD00BF0080004170B5134C38
S1130B10134D1449042363604FF0404603F18043AE
S1130B20A3620220A662A8470823636003F18043FE
S1130B30A3620D49A6620320A8474FF48073C4F84A
S1130B40843003F18043C4F8A830C4F8A8602B466D
S1130B5006492820BDE87040184700BF00800041C6
S1130B60A50A0000010002000100030001002800A2
S1130B70044A136A43F080031362034B4022C3F810
S1130B802021704700080040001C004010B5054BB0
S1130B909847054B9847002204490548054BBDE892
S1130BA010401847710B00000D0B0000001C00439F
S1130BB06C74002015100000044A0549D3690548E7
S1130BC043F40073D361044B184700BF000800408E
S1130BD0002400422474002019110000044A05492D
S1130BE09369054843F002039361044B184700BF1F
S1130BF0000800400020004160740020C111000082
S1130C00044B1A6942F400221A61DA6942F4006260
S1130C10DA6170470008004010B5044B9847044956
S1130C200448054BBDE81040184700BF010C000004
S1130C30002C0042647400203D160000024A13692F
S1130C4043F04003136170470008004010B5044BA3
S1130C50984704490448054BBDE81040184700BFB5
S1130C603D0C000000400041087400209112000077
S1130C70054B4022C3F89C20C3F88C20034A5369D7
S1130C8043F4805353617047001C00400008004047
S1130C9010B5054C05490820A047234604490920FE
S1130CA0BDE81040184700BFA50A00000200080074
S1130CB00200090013B5074B074C98470023009323
S1130CC0064A074907481023A047074B02B0BDE86E
S1130CD010401847710C0000851900000E03002015
S1130CE00030004088740020910C0000054B402225
S1130CF0C3F80C21C3F88C20034A136A43F002039F
S1130D0013627047001C00400008004010B5054CF9
S1130D1005493020A047234604493120BDE810404E
S1130D20184700BFA50A000002003000020031008D
S1130D3013B5074B074C984700230093064A07490D
S1130D4007481023A047074B02B0BDE810401847DE
S1130D50ED0C0000851900001E0300200004004370
S1130D60D87400200D0D00000148024B184700BF45
S1130D7010E000E0F111000070B5134C134A144D5B
S1130D8014494FF080734FF08046A360A662A262BC
S1130D90636194F8583003F0FB0384F8583018204A
S1130DA0A8474FF000730C4AA360A662A262636175
S1130DB094F85930094903F0FB0384F85930192099
S1130DC02B46BDE87040184700800041000100C078
S1130DD0A50A000007001800000200C0070019005F
S1130DE0074B4022C3F8A820A3F5A0531A6942F484
S1130DF080621A619A6942F001029A61704700BFE9
S1130E00001C004010B5044B9847044B9847044B12
S1130E10BDE81040184700BFE10D0000E51C0000CC
S1130E20790D0000024A536943F48073536170479B
S1130E300008004010B5074B98470120064B0749AE
S1130E40482298470648074B0360BDE81040064B0C
S1130E50184700BF250E0000DD1F0000F9BF000089
S1130E607074002000200040C941000010B51D49E5
S1130E701D4C5520A0471D491020A0471C494B205C
S1130E80A0471C494C20A0471B490D20A0471B49E3
S1130E900C20A0471A494F20A0471A494E20A047CA
S1130EA019495220A04719495420A04718490F2036
S1130EB0A04718491220A04717491320A0471749F3
S1130EC05020A04716495120A04716490E20A0479C
S1130ED015491120A047234614495320BDE810406A
S1130EE0184700BF0B005500A50A00000B001000B6
S1130EF00B004B000B004C000B000D000B000C0012
S1130F000B004F000B004E000B0052000B0054006E
S1130F100B000F000B0012000B0013000B0050001D
S1130F200B0051000B000E000B0011000B005300CE
S1130F30044B1A6942F480421A61DA6942F00402ED
S1130F40DA6170470008004010B5054B9847054B1F
S1130F50054906489847064BBDE81040184700BFAE
S1130F60310F00004D1500000008004228750020D4
S1130F706D0E000010B5154B9847154B9847154B4F
S1130F809847154B9847154B9847154B9847154B61
S1130F909847154B9847154B9847154A536943F49E
S1130FA080435361134B4022C3F8A420124B98474B
S1130FB01249134B024613489847134B9847134B57
S1130FC09847134BBDE81040184700BF5D2300004D
S1130FD08D0B0000B90B0000DD0B0000190C0000A4
S1130FE04D0C0000B50C0000310D0000690D00002F
S1130FF000080040001C0040EB32000000380040B4
S11310002517000044750020050E0000350E000071
S1131010490F000070B50D46044660B1081C18BFA6
S113102001200549054B3922984729462046044B9F
S1131030BDE870401847F4E73DC40000DD1F000020
S11310404922000038B50446003018BF01200D467F
S11310504E220449044B984720462946034B98479F
S1131060002038BD3DC40000DD1F000081220000C7
S11310702DE9F84F884617461D46044600283BD004
S1131080002A3AD0181C18BF012067221C49DFF837
S11310907C90DFF87CB0C8471A4B20469847064638
S11310A095FBF0F006FB1050B0FA80F06922144969
S11310B04009C847DFF85C904FF0000A2046C84753
S11310C041462046104B98470028F9D04146204617
S11310D0D847012E88BF07EB0A020AEB060307F87C
S11310E00A0088BF000A1FFA83FA88BF507055456A
S11310F0E4D85046BDE8F88FC7E71046C5E700BFFF
S11311003DC400008D2200009F220000DD1F00006E
S1131110C9220000AD22000070B50D46044660B13E
S1131120081C18BF01200549054B3222984729465F
S11311302046044BBDE870401847F4E757C400004C
S1131140DD1F0000D322000010B50446003018BF94
S11311500120044B0449462298472046034BBDE82E
S113116010401847DD1F000057C40000E3220000B0
S113117070B50D461646044668B1081C18BF012018
S11311805A220549054B9847324629462046044BC6
S1131190BDE870401847F3E757C40000DD1F0000A6
S11311A0E9220000EFF31083036072B6BFF35F8F90
S11311B07047BFF35F8F036883F3108870470000A4
S11311C070B50D46044660B1081C18BF01200549DE
S11311D0054B2B22984729462046044BBDE8704016
S11311E01847F4E771C40000DD1F0000AD250000BE
S11311F0014B1860014B1847300300200D310000EB
S1131200054B10B51C68054B9847054B0146204615
S1131210BDE81040184700BF300300204123000000
S113122021310000054B10B51C68054B9847054B50
S113123001462046BDE81040184700BF3003002097
S11312405323000021310000436903B1184770475C
S1131250836903B11847704738B50546003018BF95
S113126001200C4640F217120649074B98472846BE
S1131270064B98470138204214BF6FF00D00002040
S113128038BD00BF8BC40000DD1F0000692A0000C8
S113129038B50D46044680B1081C18BF0120074923
S11312A0074B3822984729462046064B984718B9D9
S11312B0054B2360054B636038BDF0E78BC4000029
S11312C0DD1F0000ED29000049120000511200004A
S11312D02DE9F0410E46174698460446F0B1F2B1A6
S11312E0181C18BF012056221049114B9847114B66
S11312F020469847104B0546204698476843B0421D
S11313000FD308EB060398420BD3204643463A46D4
S113131031460A4CA0470020BDE8F081E3E71046BF
S1131320E1E76FF00D00BDE8F08100BF8BC4000061
S1131330DD1F0000692A00006F2A0000772A0000E0
S11313402DE9F0410E4617469846054620B322B3D0
S1131350181C18BF01206A221549164B9847164BD2
S113136028469847154B0446284698476043B042A0
S113137015D308EB0603984211D331462846104B87
S11313809847044678B9284643463A4631460D4DB7
S1131390A8472046BDE8F081DDE71046DBE76FF0A3
S11313A00D00BDE8F0816FF01000BDE8F08100BFD2
S11313B08BC40000DD1F0000692A00006F2A0000B2
S11313C0752C0000952A00002DE9F0410E461746C1
S11313D09846054620B322B3181C18BF0120822268
S11313E01549164B9847164B28469847154B044603
S11313F0284698476043B04215D308EB0603984249
S113140011D331462846104B9847044678B92846EC
S113141043463A4631460D4DA8472046BDE8F08183
S1131420DDE71046DBE76FF00D00BDE8F0816FF0FB
S11314301000BDE8F08100BF8BC40000DD1F000078
S1131440692A00006F2A0000752C0000652B00003B
S11314502DE9F84388461746044618B3101C18BFF4
S113146001209A221149124B9847124B2046984763
S1131470114B054620469847414681460F4B20466E
S11314809847064658B94F450DD8B8FBF5F53D4485
S1131490A94508D33A4641462046094B9847304669
S11314A0BDE8F883DDE76FF00C06F8E78BC40000B5
S11314B0DD1F0000692A00006F2A00005912000095
S11314C0CD2B000010B50446003018BF0120044B9A
S11314D00449F72298472046034BBDE810401847BB
S11314E0DD1F00008BC40000692A000070B50D46A2
S11314F01646044668B1081C18BF01203422054969
S1131500054B98472368324629462046BDE870407B
S11315101847F3E7A2C40000DD1F000070B50D46B4
S11315201646044668B1081C18BF01203D2205492F
S1131530054B98476368324629462046BDE870400B
S11315401847F3E7A2C40000DD1F000070B50D4684
S1131550044660B1081C18BF01200549054B31221F
S1131560984729462046044BBDE870401847F4E7E5
S1131570B6C40000DD1F00002526000010B5044697
S1131580003018BF0120044B0449452298472046E7
S1131590034BBDE810401847DD1F0000B6C400002F
S11315A00927000070B50D461646044670B171B1A6
S11315B0101C18BF012057220649074B9847324692
S11315C029462046054BBDE870401847F3E7084616
S11315D0F1E700BFB6C40000DD1F000019270000BA
S11315E070B5044600300D4616460749074B4FF0C8
S11315F0610218BF01209847324629462046044B11
S1131600BDE87040184700BFB6C40000DD1F0000ED
S11316104D28000010B50446003018BF0120044BCB
S113162004496B2298472046034BBDE810401847F5
S1131630DD1F0000B6C400004129000070B50D464E
S1131640044660B1081C18BF01200549054B2C2233
S1131650984729462046044BBDE870401847F4E7F4
S1131660D1C40000DD1F00009D290000F0B505680D
S11316701DB90F4BBDE8F0401847D1F808E02C46DF
S11316800026C2F1010C6368A768934295BFDB1979
S113169063449B1ADB19734507D22368264613B9A2
S11316A03046044BE6E71C46EDE7A542F8D1E0E7F7
S11316B0F11F00001D2000002DE9F0470669037E9C
S11316C044690136DA070546066110D4037E9B0798
S11316D00DD4DFF84880DFF8489000F1140724B1F6
S11316E06368A268F31A934207D2BDE8F0872B7EA1
S11316F043F002032B76BDE8F0873846C047237CCD
S1131700012B04D16660324621463846C847D5F8D5
S113171014A0E368204698475446E0E7612000009F
S11317206D16000038B50D46044678B1081C18BF84
S113173001203B220649074B984729462046064B81
S113174098470020054B2061236038BDF1E700BFB6
S1131750EBC40000DD1F0000E1310000B9160000F9
S113176038B50546003018BF012053220749084BFD
S113177098472846074B9847044620B92846064B05
S11317809847204638BD6FF0100038BDEBC4000008
S1131790DD1F0000DB320000C93200002DE9F341F7
S11317A00D46044600B3081C18BF01207A221D49C7
S11317B0DFF88880C047237E04F1140743F0010357
S11317C0237629463846184B9847064668B1237E47
S11317D0144903F0FE03002023767F22C0476FF0F4
S11317E0110002B0BDE8F081E0E722690F4B6A60A6
S11317F0384629469847237E03F0FE032376207E4D
S113180010F00200EDD001A8094B9847237E03F0A5
S1131810FD0323762046074B984701A8064B9847BB
S11318203046DEE7EBC40000E31F00006D16000045
S1131830A5110000F1320000B3110000DD1F00000B
S1131840034600229A62DB69083803B118477047DF
S1131850034600229A625B6A083803B1184770474E
S113186070B50446054BA0F108052C309847236A4F
S11318701BB12846BDE87040184770BDF120000038
S113188070B50E4615460446E0B1E1B1101C18BF10
S1131890012040F23B120E4B0E499847B4F8442005
S11318A0B4F84C309A4210D10023A4F844300123F8
S11318B0236304F10800A664A4F84C50064B98472F
S11318C0284670BDE5E70846E3E76FF01B0070BDEE
S11318D0DD1F000002C5000059300000838FB0F8FE
S11318E044209A4210B504460AD0026C591C8187E0
S11318F0D15C044B9847044B2046BDE81040184780
S1131900024BFAE749300000593000006130000012
S11319102DE9F7430E4617460546F0B1F1B1101C08
S113192018BF01204FF4AC721049114BDFF85090EE
S11319309847343501A80F4B98470F4B28469847D2
S11319400E4B804601A898470024A04501D0A74229
S113195006D1A0B203B0BDE8F083E3E70846E1E7AF
S113196031192846C8470134EFE700BF02C500001B
S1131970DD1F0000A511000035210000B311000097
S1131980AD200000F8B50D4616461F46044610B3B8
S113199011B31AB3181C18BF01203A221249134B71
S11319A098473A46314604F13400114B9847B8B988
S11319B0294604F108000F4B984798B90E4B636011
S11319C00E4B23600E4BA3600E4BE3600E4B236162
S11319D00E4B6361F8BDE0E70846DEE71046DCE73E
S11319E06FF00C00F8BD00BF02C50000DD1F000051
S11319F06D200000B12F00001119000081180000B3
S1131A00DD180000611800004118000051180000A2
S1131A1010B50446003018BF012061220449054B6B
S1131A20984704F10800044B9847002010BD00BFFC
S1131A3002C50000DD1F00002D30000038B50D4642
S1131A40044648B1081C18BF012077220349044BFF
S1131A5098472C60002038BDF7E700BF02C500009E
S1131A60DD1F000070B5044600300E4618BF01208B
S1131A7015461149114B83229847012E10D004D3E7
S1131A80022E13D06FF00C0070BD2A1CA56218BF83
S1131A900122012104F10800094B9847002070BD80
S1131AA02A1C656218BF01220221F3E72A1CE562A1
S1131AB018BF01220321EDE702C50000DD1F00006D
S1131AC06930000010B50446003018BF0120F82228
S1131AD00349044B984704F10800034B984710BD91
S1131AE002C50000DD1F00004F3000000A4970B538
S1131AF0002300F00F065D014C195AB26478844249
S1131B0008D06D5C0DB9A64204D00133042BF2D188
S1131B104FF0FF32104670BD3403002000207047A0
S1131B2070B5094B04460D469847084B03EB40102B
S1131B308378032B05D1836929462046BDE870408C
S1131B401847002070BD00BFED1A000034030020C8
S1131B502DE9F0433C4B3D4C85B080460F46914601
S1131B60984703464601002F49D1A519A15DEF709E
S1131B7000293BD1AA786878EE69032A4FF00C0E4D
S1131B804FF020022BD112FB03E22244012195F9EC
S1131B900C70B0476B7878B10522002FAA704FF013
S1131BA00202B4BF184643F08000EA700121284BBA
S1131BB0984705B0BDE8F083002FACBF43F0800325
S1131BC003F00F0304228DF80C30012301900290DE
S1131BD08DF80D30AA7001A81E4B9847E9E712FB57
S1131BE003E22244B0470223AB70E2E70123AB7067
S1131BF034444A46E369E17840469847D9E7012FDF
S1131C0004EB06030BD1A15D0222DA7021B99A70AC
S1131C1040460F4B9847EBE705229A70E8E7022FFE
S1131C2007D10422DA70A25D0AB99F70C1E70122CC
S1131C30F3E7032F09BF002206229A70052218BF7A
S1131C409A70DA70D4E700BFED1A00003403002064
S1131C50093F0000414000002DE9F0471D4B1E4E96
S1131C601E4C0546984720270C2317FB00373744A2
S1131C708146394628461A4B9847C0B2082865F071
S1131C807F0809D001212846A04701215FFA88F086
S1131C902346BDE8F047184706EB491600212846BD
S1131CA05FFA88F8A0474FF0010900214046A04799
S1131CB086F80290736939462846984738B905234F
S1131CC04946B3702846A04749464046E0E7BDE888
S1131CD0F08700BFED1A000034030020093F000024
S1131CE0ED3F000010B5104B984700281BDB802205
S1131CF000210E4B0E4898470D4B0E4A03F180010C
S1131D00FF2058705A619A61DA6120338B42F8D10E
S1131D10094C0A490020A04709490120A047022094
S1131D200849A047002010BD113B000045B3000046
S1131D30340300201D1B00006D410000591C0000ED
S1131D40211B0000511B0000004B184749410000B3
S1131D50004B1847DD3B0000004B1847293C0000AE
S1131D60004B18473B3C0000F8B5104C06460D46A6
S1131D701746A047002813DAFF20A047041E12DBF1
S1131D803A46294630460A4B984700280DDB094B52
S1131D9060011A1805F003051D5456700020F8BDA3
S1131DA06FF01300F8BD6FF01400F8BDED1A0000D9
S1131DB0493C00003403002000210246014B084640
S1131DC0184700BF691D000038B5074B0546984702
S1131DD0041E07DB2846054B9847054800EB4410D2
S1131DE0FF23437038BD00BFED1A0000093D000019
S1131DF03403002038B50C4B05469847002810DB07
S1131E0040010A4C235C0444002B0CBF0223012331
S1131E10A3702846064B9847002804DA0023A370D1
S1131E2038BD6FF0110038BDED1A000034030020F6
S1131E308D3D00002DE9F04F90F808A0364B074681
S1131E4087B050469847B0F1000897F809907E682B
S1131E505DDBDFF8D4B0314B4FEA48180BEB0805D3
S1131E6002A89847AB788DF807309DF807002C4BF3
S1131E70C4B2012C1CD10322AA7002A898471BF8F3
S1131E8008304BB319F100034FEADA1418BF0123E9
S1131E9039683A7A03910496002C35D042F08002D6
S1131EA08DF8153003A81F4B8DF8142098470DE0CA
S1131EB002A898479DF80730DBB2052B2AD0062BE1
S1131EC007D0002B0CBF6FF01200012007B0BDE853
S1131ED0F08F6FF00F00F9E7E97CAA7C02EB012296
S1131EE092B22AB90423AB70164623461C46CFE7A8
S1131EF095F90C10964228BF16460029F6DAB2422C
S1131F0094BF00230123C3E702F00F02C8E76FF078
S1131F101100DBE70220D9E7ED1A0000A51100004B
S1131F20B311000041400000340300202DE9F041CA
S1131F3005460C46D9B9134B9847071E1EDB0221F0
S1131F402846114EB047D8B121462846B04700284C
S1131F5016DB0E4800EB4710032101238370C17088
S1131F60C3692246284698472046BDE8F0810129E6
S1131F70054B18BF0221BDE8F04118476FF011006E
S1131F80BDE8F081ED1A0000093F00003403002091
S1131F9038B50F4B14460D4698470E4A002C08BF1F
S1131FA01446002813DB012D08D002D3022D0AD0D9
S1131FB038BD094B03EB4010446138BD064B03EBBD
S1131FC04010846138BD044B03EB4010C46138BD3C
S1131FD0ED1A00001D1B00003403002000B900BEF0
S1131FE07047006800B970478842FAD101207047F1
S1131FF038B5074B0D460446984780F00100054B61
S113200005493922C0B2984723682B60256038BD42
S1132010E31F0000DD1F00001FC5000003680B6004
S11320200160704770B50B4B056806460C4698472F
S113203080F00100084B09494F22C0B29847336829
S11320401BB93460236070BD1D462B68002BFBD187
S11320502C60F7E7E31F0000DD1F00001FC5000030
S113206003680BB11A6802601846704770B50E46D3
S11320701446054698B199B1101C18BF01202822B6
S11320800849094B9847631E14EA030001BF6B60BB
S1132090A860E8602E6018BF6FF00C0070BDEEE71A
S11320A00846ECE73DC50000DD1F000038B50D46CD
S11320B00446A0B1081C18BF012040220A4B0B495A
S11320C09847A368E2689A420AD06268134022687B
S11320D0D35C2B70A3680133A360002038BDECE708
S11320E06FF0090038BD00BFDD1F00003DC50000D2
S11320F038B50446003018BF01200D4651220B4963
S11321000B4B9847E368626813402268D554E36830
S1132110A1686268591A914288BF9A1A03F10103AF
S113212088BFA260E360002038BD00BF3DC5000049
S1132130DD1F000010B50446003018BF01206722DF
S11321400349044B9847E068A368C01A10BD00BF58
S11321503DC50000DD1F0000044B1968024609B9A3
S113216003491960186802441A607047B4030020D8
S1132170B8500120036B0B42FCD1704708B5032112
S1132180034B984703889BB243F00203038008BDC6
S11321907521000008B50321044B9847038823F0F8
S11321A002031B041B0C038008BD00BF7521000043
S11321B038B5036B174D13F0010F02460C4608D1D6
S11321C003889B0703D5144B98470221A847012392
S11321D0138010460121A8471049162303FB04115C
S11321E000208B88D3808B791372CB7993700B8901
S11321F093808B7A9372CB7AD3728B899381CB89B8
S1132200D3810B8A13824B8A53820B7DD3704B8804
S1132210138038BD752100009521000062C50000BF
S113222000F13D40A0F5E050C0F3872008B520B18F
S113223088220349034B00209847002008BD00BFB3
S113224078C50000DD1F000070B5054600300C465F
S113225018BF01200649074BCE2298472C60204620
S1132260054B9847054B01462046BDE8704018478A
S113227078C50000DD1F000021220000B12100000C
S11322800068014B184700BF7D2100000368DB880C
S1132290C3F3C103032B0CBF012002207047036862
S11322A093F82E0000F0010070470000026808B5A2
S11322B040F6FF71034B10469847137D43F0020329
S11322C0137508BD752100000368B3F8400080B29F
S11322D07047002301220B600A6001604A721846AD
S11322E0704700207047000008B580F8382002329B
S11322F0D200024B04309847002008BDFBB2000016
S1132300BFF34F8F0549064BCA6802F4E0621343DA
S1132310CB60BFF34F8F00BFFDE700BF00ED00E0CF
S11323200400FA054309012200F01F0002FA00F03C
S11323304033024A42F82300704700BF00E100E046
S11323404FF4F073584301380A23B0FBF3F0013023
S113235070474BF6803358437047000010B50D4A60
S11323600D4C13889BB213800C4B98470C4B984729
S11323700C4B98470520A0470B4B984740F6FA7042
S1132380A0470A4A136943F400731361BDE810407F
S1132390074B184700400041B5250000C12C000040
S11323A0D52C0000A5290000D92C0000000800400D
S11323B00124000010B4104B104C198C01F01F01C3
S11323C003EB01130C224A4393F84E10C90704EBA4
S11323D0020005D5012283F84E20436810BC18473B
S11323E093F84E10890704D5022183F84E10A358A0
S11323F0F4E710BC704700BF00A00041C0030020F8
S113240030B52E4B1A8822F002021204120C1A80E4
S11324105A8822F47C521204120C5A801A8892B2FE
S113242042F001021A801A8812F00102FBD14FF423
S113243070611980597B224801F0FE01597300F53F
S113244000715A61586399631E491346A0F5C07020
S11324501C0104F1824202F520420D6815640D79D5
S113246082F845504D7982F8465004440133CA88B5
S1132470A4F88021202B01F10801E9D11F220120B9
S113248053099B0003F1604302F01F0103F561430C
S113249000FA01F1C3F88010BFF34F8FBFF36F8FC1
S11324A00132242AC3F880111960E9D1034A138840
S11324B09BB243F002031380002030BD00A0004112
S11324C04005002090C50000034B03EB0010C0F84A
S11324D088110020704700BFC0030020034B03EBAA
S11324E00010C0F884110020704700BFC003002012
S11324F070B5124A00011418D4F88861B4F8803118
S1132500B4F88051C3F301232D0542BF01FA03F54A
S1132510AD19C4F8885114180244D4F88451B4F89D
S11325208061760544BF01FA03F35B1989B248BFA1
S1132530C4F88431A2F88211002070BDC0030020C9
S11325400E4A02EB0012B2F880319BB243F0010351
S1132550A2F88031030103F1824303F520431A6C8E
S113256042F002021A6431B1054A0123116903FAE7
S113257000F0084310610020704700BFC003002032
S113258000A00041004B1847B5230000004B18473A
S1132590B5230000004B1847B5230000004B184733
S11325A0B5230000004B1847B5230000016000204C
S11325B070470000C20742BF044B054A1A628307F2
S11325C042BF024B034A5A62704700BF001C0040DE
S11325D0062F0100042F010013B5114C2068036875
S11325E05A6900921A6A01925A6A009A92060AD5A6
S11325F0009A5A61636804EBC303DB7BDB0902D0F6
S1132600436803B19847019B9B0703D520688368FF
S113261003B198472368019A1B681A6202B010BD7F
S113262040090020314B2DE9F04301600B60304B31
S11326304B60304F0123CB602F4B0B6140F20112F2
S1132640002307F1080CC1F8B83007F1A008C1F85D
S1132650BC2040F2DC599E463D466646DA0009FB42
S113266003844CF833400CEB02043A44C4F804E00D
S1132670D47B013344F08004102BD473EED197F84B
S11326808730C7F804E043F0400387F887301B4BDA
S11326900022C3F888E903F5196403F6282C1746C9
S11326A00CEB021E42F804E004EB020E0832802A0E
S11326B0CEF80470F4D193F8082A286042F002029C
S11326C083F8082A0E4BC3F830710E4BCE614FF4D9
S11326D080128C61C3F88820BFF34F8FBFF36F8FD4
S11326E00020C3F888219A60BDE8F08390010300BC
S11326F01B2191404009002004070200185E0020BD
S1132700106F002000E100E00268136843F00C033E
S113271013600020704700002DE9F74F1546474A23
S1132720474CD2F8883904EBC3030646DB7BDB094C
S113273008D1636804EBC303DB7BDB091DD16FF0B5
S11327401B0077E0D2F8883904EBC3035B7BDB0919
S1132750EFD10120D2F8883903440F2B88BF103BF6
S113276004EBC303DF7B47F08007DF735B7BDB098C
S1132770DFD101301028EDD1DBE740F2DC539D427C
S113278014D901201F4640F2DB5E636803440F2B1B
S113279088BF103B04EBC303DB7BDB09CFD007FB13
S11327A01053734502D901301028EED16368C2F882
S11327B0883901F5BB49DFF890B0224B0F4609F187
S11327C0400940F2DC5A554560680193A84628BF89
S11327D0D046394642460AFB00B098476268019BDE
S11327E004EBC202B5EB0805C2F80C8001BF6268B5
S11327F004EBC202517B41F0800108BF517362684F
S1132800013262606268102A07D10022626094F883
S1132810872042F0400284F887201DB107F2DC577C
S1132820B945D0D1BFF34F8F3268136843F40073B6
S11328301360002003B0BDE8F08F00BF185E0020D5
S113284040090020FBB20000E00900202DE9F84F08
S11328500B463749374817464FF0FF350024884662
S1132860D1F8302122440F2A88BF103A00EBC2026B
S113287092F89069F6071ED592F8956916F0400F04
S113288018BF2546F60904F1010611D0B5F1FF3F42
S11328900ED0B2F89429C2F30C02974228BF17460F
S11328A04FF00009CA46B2450DD14846BDE8F88F3D
S11328B0102E3446D4D16A1C01D1264600E02E469F
S11328C04FF0FF34ECE7611C17D0AA4515D3A2459D
S11328D013D897B1802FD8F830111748BB4628BFBA
S11328E04FF0800B00EBC1115A461846134B984722
S11328F003465B44D944A7EB0B07D8F830210D49B4
S113290001EBC2020AF1010A92F890196FF3000177
S113291082F89019D8F830210132C8F83021D8F85B
S11329203021102A04BF0022C8F83021BBE700BFC1
S1132930106F0020185E002040680020FBB20000E9
S1132940F0B5144C144F0020014602462546D7F832
S1132950303113440F2B88BF103BDB00E61896F888
S113296090E91EF0010F13D096F89569760600D40D
S113297031B1E918B1F89419C1F30C0108440121EB
S11329802B4493F89539DB0902D10132102ADED1A8
S1132990F0BD00BF185E0020106F00200160002011
S11329A070470000014B01225A7170470008004033
S11329B070B58E08448AE507FCD54AF21554848024
S11329C0448AE407FCD5C2EB86061446A51AADB2C8
S11329D09D4207D3438ADB07FCD54AF20353416186
S11329E0838070BD2568A5510434EFE738B50D46E2
S11329F0044668B317480B1A584258414B221649EB
S1132A00164B984725612B8823F0C0039B049B0C2D
S1132A1043F4404343F0C0032B80114B1C60114B23
S1132A204FF00051C3F88010BFF34F8FBFF36F8F87
S1132A304FF08042C3F88020BFF34F8FBFF36F8FF6
S1132A400020C3F88011C3F8802119601A6038BDD2
S1132A50D4E700BF0040004190C60000DD1F000025
S1132A604470002000E100E04FF4007070470369F7
S1132A70986880B2704710B50469608AC007FCD5B5
S1132A8013441046984200D110BD841A645C00F8C7
S1132A90014BF7E72DE9F04FADF5005D83B08146BA
S1132AA0924698460E4626F4FF5424F01F0404F57B
S1132AB0FF531F33019304F5005B25462A1B02A92B
S1132AC00A444FF4007329464846244F05F500751F
S1132AD0B8475D45F2D1331B5246590AB61AC3F3BF
S1132AE00803019806EB020B5845924602D3B8F14D
S1132AF0000F23D1D9F810305A8AD207FCD54AF2F4
S1132B0001525C6126469A80321B02A90A444FF4A2
S1132B1000733146D9F81000114F06F50076B84716
S1132B20AE42F1D108EB0B03019A013B9A425E4697
S1132B30B9D30DF5005D03B0BDE8F08F02A800EB3A
S1132B4041209AF800E000F803E00133C3F30803DE
S1132B50013203B9013108F1FF38C2E7772A0000D6
S1132B60B12900002DE9F04721F4FF7525F0010596
S1132B70A942074690461E4612D06C1A04F500740A
S1132B809C4228BF1C46A3B20069DFF83C90C847AA
S1132B9005F50075DFF830A0B44203D3BDE8F08733
S1132BA00024F7E7A6EB0409B9F5007F28BF4FF42A
S1132BB0007908EB040229461FFA89F33869D047E3
S1132BC005F500754C44E7E7B12900002DE9F04311
S1132BD021F4FF54ADF5017D0E460746154624F059
S1132BE01F044FF40072FF216846204B9847A64209
S1132BF01DD122462B464AF201500F2B2CD82B090B
S1132C00B5EB031504EB43240DD0DFF864800026F4
S1132C1021464FF400736A4638460136C047B54230
S1132C2004F50074F4D10DF5017DBDE8F083DFF8FF
S1132C30409004F5005406F5F0584FF400736A46CA
S1132C4031463846C847013DEDD006F50076B4421A
S1132C50CFD04645F1D1CCE739694E8AF607FCD589
S1132C604A61103B888002F50072C6E745B3000054
S1132C70952A00000369C1F38F319A69012303FA8D
S1132C8001F111420CBF184600207047094B186827
S1132C9003691A8AD20704D501221A82036843B150
S1132CA018471A8A92B222B140F25E221A8243680D
S1132CB0F5E7704744700020004B18478D2C000046
S1132CC0034BDA6902F47C52DA6101221A74704708
S1132CD00014004070470000264A136A23F00F03D3
S1132CE043F004031362244B00221A77234A9A62A6
S1132CF093F82C2012F01002FAD183F820201E4AF7
S1132D00134692F82C104907FBD44221117793F80B
S1132D102C209207FBD45A6A5A62174B1A4693F82E
S1132D202C100807FBD4AA2183F8201092F82C3029
S1132D305907FBD492F8203013F0010F0E4B14D036
S1132D401A6902F41062B2F5106FF9D11A7F42F0D9
S1132D5080021A77074A5368002BFCD1136A23F0C8
S1132D600F0343F00603136270471A69D205FCD5BA
S1132D70ECE700BF001C00400010004080BB807CDA
S1132D8007B50C4A9378DBB20193019B990707D5E9
S1132D90094B1B6823B15068984703B05DF804FBE6
S1132DA0019BDB07F9D5044B5B68002BF5D0014A86
S1132DB0F1E700BF0000024160750020002808DB35
S1132DC04209012300F01F0003FA00F0014B43F80D
S1132DD02200704700E100E000280DDB43090122D6
S1132DE000F01F0002FA00F02033044A42F82300E6
S1132DF0BFF34F8FBFF36F8F704700BF00E100E058
S1132E00002809DB4309012200F01F0002FA00F048
S1132E106033024A42F82300704700BF00E100E03B
S1132E20C3690B42FCD1704708B50321034B984793
S1132E30036823F00203036008BD00BF212E0000D5
S1132E4070B50B4D06460FCD88B06C460FC495E89F
S1132E500F0084E80F0000205DF82030B34202D157
S1132E60C0B208B070BD01300828F5D10020F8E7E1
S1132E70B0C6000010B58469227ED107034608D588
S1132E80A27DD20705D5012222750368BDE8104052
S1132E901847227E900709D5A27D910706D5022204
S1132EA022759A681846BDE810401047227E5207E2
S1132EB00DD5628B02F0370212B1FF23638310BD7C
S1132EC0A16A5A68C9B21846BDE810401047227E6C
S1132ED0D209F4D080222276DA6818469047638BB0
S1132EE09BB2EBE7054B984202D1054B1960704742
S1132EF0044B984204BF024B5960704700300040B5
S1132F00487000200004004308B5034B9847800034
S1132F102E3000F0FE0008BD412E000038B51C4BD9
S1132F200446984738B1052830D040F26D2219493B
S1132F30194B002098470022E369184D13F0010F44
S1132F400AD123689B0705D52046154B98470221D3
S1132F502046A8470523236020460121A847114B9A
S1132F6023604FF4403363600F4BA3600F484FF26C
S1132F70BC43A381182303FB0202002092F83330E0
S1132F80A37392F8343084F8303038BD0122D3E78B
S1132F90412E000029C70000DD1F0000212E000083
S1132FA0292E00008400104002007000B0C600000A
S1132FB02DE9F8430646003018BF01200C46CD2207
S1132FC01249134B98472046124B98470546C8B9F7
S1132FD0B46131462046104BDFF84C800F4F104E41
S1132FE0984720460F4B98472C46814609EB04012D
S1132FF0C9B20846C0470846B84701340846B04736
S1133000042CF3D12846BDE8F88300BF29C700008B
S1133010DD1F00001D2F0000E52E0000012E000022
S1133020BD2D0000092F0000D92D0000826908B5CC
S11330300321044B10469847136843F002031360BE
S113304008BD00BF212E000083699962704783691F
S1133050187E00F001007047836901229A75704759
S1133060836902229A75704770B5054600300E4692
S113307018BF012014460F490F4B40F22D229847E8
S113308016F0FD0F09D1AB690121022214B919759B
S11330901A7570BD99759A7570BD012E04D1AB690E
S11330A00422002CF7D1F3E7032EF5D1AB6980227B
S11330B0F7E700BF29C70000DD1F0000014B1868B7
S11330C0014B184748700020752E0000004B18472C
S11330D0BD300000004B1847BD300000004B1847BE
S11330E0BD300000014B5868014B18474870002060
S11330F0752E0000004B1847E5300000004B1847C0
S1133100E5300000004B1847E5300000034B6FF03A
S11331107F425A6005221A60704700BF10E000E049
S11331200B0E0C4A30B5D8B26FF07F440138C0B2F0
S1133130FF2808D1A3EB036319445160916013681D
S1133140DB03FCD530BD546094601568ED03FCD5F9
S1133150ECE700BF10E000E000280DDB430901228A
S113316000F01F0002FA00F02033044A42F8230062
S1133170BFF34F8FBFF36F8F704700BF00E100E0D4
S113318070B5104D06460FCD88B06C460FC495E857
S11331900F0084E80F0000205DF82030B34202D114
S11331A030B908B070BD01300828F5D10020F8E727
S11331B000204FF4A0720449044B98474FF0FF30AD
S11331C0EFE700BF44C7000078C70000DD1F000020
S11331D003699B07FCD1036823F002030360704773
S11331E0F8B50646304B08460C4698472F49304BF5
S11331F0F46005468E22012098472369D90704D438
S113320023689A073AD401232360216911F001014C
S1133210FBD12848142303FB05035A6A93F82A7048
S11332202260E77302F00C021F8DE780082A4FF03A
S11332300107277329D1DB6AE361216201236372E9
S11332401D4B9C4204BF1D4B1E60142303FB05054C
S11332501B4BB5F922100846984700290CDB01F0F6
S11332601F024909890001F1604101F5614101230F
S11332709340C1F880310B600020F8BD2046114B0B
S1133280984723699B07FCD4BDE71AB99B8DA38398
S1133290E283D3E7042AD1D193F82C2093F82B307E
S11332A022776177E376C9E78131000078C70000AF
S11332B0DD1F000044C700000038004050700020AB
S11332C059310000D1310000C3681A699207FCD15A
S11332D01A6842F002021A607047C3681A699207BA
S11332E0FCD11868C0F3400070470020704700000C
S11332F010B50A4BC068984740F213120446084BB5
S1133300084901209847084B142202FB0434074B58
S113331094F82200BDE81040184700BF8131000036
S1133320DD1F000078C7000044C70000252300000B
S1133330054B1868C3689A7AD20703D501229A729A
S113334003681847704700BF507000200020704782
S1133350074B93F82020D10706D51A6902F41062AE
S1133360B2F5106FF9D170471A69D205FCD57047D0
S11333700010004010B109B10230C0B2142300FBA8
S11333800330014B184470475470002030B4C17CA2
S1133390857C01F0070305F00F02012B4FEA42146C
S11333A002F108030AD05A0102F1824204F1824375
S11333B01021D17183F8081130BC704711F0400F0F
S11333C00BD052016FF3861102F18242C174802145
S11333D082F80411402182F80511C27C6FF3C30204
S11333E0C2740A4A5B011119002003F1824381F877
S11333F0D20081F8E2006F21D97104F1824328469A
S113340083F80811936830BC184700BF547000203B
S11334100246807C202303FA01F100F00F035B01D4
S113342003F18243C9B283F80811024B92681B6905
S113343001211847547000200246807CFF280AD0DE
S1133440D37C13F0400F06D06FF38613D374024B72
S113345092681B69184770475470002077B4837CC6
S113346025248DF80440FF2B4FF04A048DF80540C5
S113347021D0C47C64061ED503F00F0303F10804B5
S1133480650105F1824599B180262E7102AD0D4486
S113349064015B0104F1824403F1824315F8041CC6
S11334A0E17183F80811054B114603B070BC18474D
S11334B040266E71EAE703B070BC704739340000EF
S11334C0F3B4867C042306F00F068DF80430082339
S11334D08DF80530F3185A0102F182427501127811
S11334E039B3C2F302122E4C05EB01152544022A0E
S11334F0AC7A02AA02EB0107E4B24FEA46121BD1EE
S113350014F0010F18D0AC7A5B016FF3000402F1E0
S1133510824203F18243AC72003117F8044CDC712F
S113352018BF012182F8084104221E4B02B0F0BCEE
S1133530184702F00702D6E714F002041BD0AC7A55
S1133540C67C5B016FF3410403F18243AC7217F84C
S1133550044CDC7102F1824206F00703012B82F86D
S1133560084119D1730617D5C37CDB09994213D0DE
S113357000221946D9E70C4801EB460100EB011182
S11335805B0103F1824302F1824281F8D24017F8D1
S1133590041CD97182F8081102B0F0BC704700BF56
S11335A01C7100205D340000547000202DE9F041AE
S11335B0094C0A4F04F1B405FF2603212046B847FD
S11335C00021A674E1741434AC42F6D1602204489C
S11335D0044BBDE8F04118476870002039340000FE
S11335E01C71002045B300002DE9F0470446807C9F
S11335F0894600F00F0800295AD04C4B03EB4813BE
S11336005E69C6F30D06B4F810E094F813C040F2F6
S1133610FF339E451ABF0EF1FF3292B272460CF090
S1133620070AB9F1000F06D04FEA481303F18243A9
S1133630022183F80711A168636831449942A160AB
S11336404FEA481540D25B1A1CF0200F9FB2384E47
S113365023682FD0774528BF77463A461944E06857
S1133660344B98477319E268C3F8D8207219D2F81A
S1133670DC3067F30D03C2F8DC30D2F8DC306FF3D2
S11336809B33C2F8DC30B9F1000F08D1BAF1010F55
S113369005F182450CBF4E234A2385F809314FEAD0
S11336A0481303F18243802283F80521BDE8F087A3
S11336B00E46A8E719447319B7F5005F28BF4FF405
S11336C00057C3F8D810D1E71CF0100F0ED0E37CDC
S11336D06FF30413E374184B2B445A686FF30D0211
S11336E05A605A686FF39B325A60CCE7BAF1010F03
S11336F005F1824502EA06020CBF4B234A23964594
S113370085F808310CD1E37C6FF38613E374084B1E
S1133710DB6898470028C9D1E37C43F04003E37495
S113372020460021054BBDE8F04718471C710020D6
S113373054700020FBB200002C71002039340000CA
S11337402DE9F74F867C06F00F0604460F467501F7
S1133750002962D0614B2B445A685B68C2F38D39EF
S1133760C3F30D0AB4F81080E27C40F2FF339845AD
S11337701CBF08F1FF381FFA88F802F007030AEAB1
S1133780080B01932FB1730103F18243012183F8E4
S1133790071190060CD5626852B1A0682368E168ED
S11337A0121A92B25A45184428BF5A464C4B9847AD
S11337B06268002A34D1E37CD90640F1898062F33F
S11337C004134848E168DBB2284443F02003E3745F
S11337D000F1C803C0F8C8105968208A60F39B310F
S11337E05960596862F30D0159606FB9019B012B4F
S11337F004BF3C4B5B1905F182450ABF83F8E270B4
S113380025232D2385F80931760106F182464023CC
S113381086F8043103B0BDE8F08F89468A46A1E7F3
S1133820F7B1238A5B451BD9E37C6FF30413E3747C
S1133830A3685344A360019B05F18245012B0CBF8F
S11338402D23252385F808311EB9264BE268C3F8D9
S1133850C820254B0021204603B0BDE8F04F18478F
S1133860A16849448A42A160E5D9E07C1D4BB4F8C3
S113387010E0521A10F0200F92B214D05919724568
S1133880E068C1F8C80028BF72462B44D3F8CC10B6
S113389062F39B31C3F8CC10D3F8CC206FF30D0244
S11338A0C3F8CC20A1E772450AD9B2F5005F0CD861
S11338B022EA0802206801445819C0F8C810E4E755
S11338C0F8D240F02000E074F4E74FF40052F1E73E
S11338D0002FA6D1A3684B44ACE700BF1C710020A5
S11338E0FBB2000054700020393400002DE9F04789
S11338F04FF082431D8CADB2002D6ED1998B1A8B83
S113390092B20A4012F0040006D004229A83674B54
S1133910BDE8F0471B68184712F4007125D040F247
S113392001229A839A8270221A83604BB3F8D020C2
S113393002F00F02032A14D0B3F8F02002F00F02B1
S1133940032A10D1012103EB41100022B0F8D0105A
S1133950A0F8D020C1F30A115B680320BDE8F0474A
S113396018470146EFE70146F6E712F0800005D05C
S113397080229A834D4B05205B68EFE712F07004B8
S11339800CD070229A839A8240F201221A83484B07
S11339909847464B01465B680220DFE712F00801B6
S11339A00FD0082283F800419A8370229A8240F251
S11339B001221A833F4B98473C4B21465B68012008
S11339C0CCE7D00709D540F201229A839A8270226B
S11339D01A83364B04205B68C0E7374CDFF8EC8071
S11339E0364F0026A4F11409A27CFF2A29D002F044
S11339F00F02012101FA02F32B4222D0530152019A
S1133A0003F1824302F1824293F8070192F80931EB
S1133A10034016D0142202FB069292F8272002F0EB
S1133A204700884214D1DA0602D52046C04708E090
S1133A3013F0400103D001462046214B15E09B06BC
S1133A40FAD40136092E04F11404CDD1BDE8F0876F
S1133A50100614D55806EFD4180702D52046B847E7
S1133A60EFE7980703D5174B20469847E9E702F09C
S1133A700702012AE5D15A0715D50021EEE713F014
S1133A80200001D00021D7E75807F6D4D80702D583
S1133A9020460D4BE9E702F00702012AD1D11A07AB
S1133AA001D50121DAE7DB06CBD5BEE7547000204F
S1133AB051330000AD35000068700020C1340000AF
S1133AC011340000E9350000413700008D33000057
S1133AD0B0F5007F0FD8B0F5807F0ED880280ED8BF
S1133AE040280ED820280ED810280ED8082894BFB5
S1133AF000200120704707207047062070470520EA
S1133B00704704207047032070470220704700006C
S1133B1008B54FF082439A78D10706D41A789207F1
S1133B203FD44FF0824301221A704FF082429378BF
S1133B30DB07FCD4244B254A1A605A609A60DA6089
S1133B401A61234B9847234B1968C1F34413C1F3FB
S1133B50822211F01F0131D01F2908BF09217BB334
S1133B601F2B08BF19236AB3072A08BF06221203B2
S1133B7043EA811302F4E04213434FF082429BB2C2
S1133B801385D37843F00303D370D37843F00C0345
S1133B90D37004231370104B53620123138100204C
S1133BA008BD9A789007FCD11A7802F0FD021A70C9
S1133BB04FF0824293789907FCD4B2E70921CEE70B
S1133BC01923D0E70622D2E7547000204D330000B9
S1133BD0AD350000840080001C7100204FF082424B
S1133BE0937898071AD11378DBB299075CBF43F036
S1133BF0020313700B4B4FF480329A604FF400327F
S1133C009A604FF480229A604FF400229A604FF039
S1133C10824340F28D221A83002070476FF0100017
S1133C20704700BF00E100E04FF08242138923F0A7
S1133C3001031B041B0C138170474FF0824340F0B7
S1133C4080009872704700002DE9F84300F00F04DB
S1133C5047B20D468046F90F2046DFF8A890C847C2
S1133C60022C064605F003053FD8837CFF2B40D188
S1133C7085B9F943C90F2046C847837CFF2B38D147
S1133C800C2363431E49CB58002B36D16FF012002E
S1133C90BDE8F883002F18DA19490C2303FB041339
S1133CA05968F1B9164986F812800C235C430B1944
S1133CB009595B683282013513EA270338BF0B4682
S1133CC0F574F3600020BDE8F8830C2363430C49CA
S1133CD0CB58002BE6D00A490C2303FB04131B89A1
S1133CE000E05B899342DDDAD0E76FF01100BDE8B4
S1133CF0F8836FF01300BDE8F883002FEBDACBE70D
S1133D008CC70000753300002DE9F04147B200F084
S1133D100F054FEAD778044641462846194B984781
S1133D20022D064615D8837CFF2B12D0164B032296
S1133D3041469847F37C03F00703012B0BD1640140
S1133D4004F18244002384F800310023F374FF2338
S1133D50B374BDE8F081002F09DA680100F18240F4
S1133D6090F8003103F08F0380F80031EDE764012F
S1133D7004F1824494F8003103F0F80384F800312C
S1133D80E3E700BF753300005D3400002DE9F8431C
S1133D9000F00F054FFA80F9574B4FEAD9712846C6
S1133DA098476F0107F18246804696F80001022D7C
S1133DB0C3B200F2988098F81220FF2A00F0938092
S1133DC04E4C04F1C8010F4498F8131001F0070099
S1133DD0012848D113F0770340F08980112186F837
S1133DE00011B8F81010DFF818910846C847DFF83A
S1133DF014E1000700F0E0400EEA813EC1F30D013A
S1133E004EEA000E0843C7F804E004EB4515786158
S1133E1002F00F024027802086F8057186F804011D
S1133E20500185F8D230044485F8E230D8F80C60AB
S1133E30C4F8C86004F1C805D4F8CC4061F39B34DD
S1133E406C60696800F1824263F30D016960104699
S1133E50B02182F8041182F80571102280F809213A
S1133E601846BDE8F883B9F1000F1EDA13F07002AA
S1133E703DD1080100F070001843B8F8103086F8FE
S1133E8000011F49184688470007C3F30D0300F0DB
S1133E90E04004EB451418438023786186F804312C
S1133EA084F8E2201046BDE8F88313F007021ED11F
S1133EB001F0070141EA0300B8F8101086F8000188
S1133EC00F4B084698470F4B000703EA813300F075
S1133ED0E040034304EB45147B60402386F805313E
S1133EE084F8D220DEE76FF01100BDE8F8836FF0AC
S1133EF01300BDE8F88300BF753300005470002040
S1133F00D13A000000C0FF0F38B5C20900F00F0518
S1133F100C4628461146344B9847022D61D8012C93
S1133F2019D1837C03F00F0359011024944001F14B
S1133F308241E4B281F805415B01202103F182430F
S1133F4001FA02F2D2B283F80921C37C43F00803D8
S1133F50C374002038BD9CBB817C01F00F014B0170
S1133F6003F18243102493F8065194402542F0D083
S1133F70E4B283F8044149012024944001F18241D0
S1133F80E5B281F8085193F80711214207D00121C5
S1133F9001FA02F2D2B283F8075183F80421C27CF9
S1133FA002F00701012908D193F8063113F0300318
S1133FB0CFD163F3C302C274CBE76FF3C302FAE752
S1133FC0837C03F00F035B0103F1824303F58073E9
S1133FD010209B7900FA02F21A4214BF012000203B
S1133FE038BD6FF0110038BD7533000030B500F0F6
S1133FF00F00124B42019C189D5864680228C4F3B8
S11340000D0414D899B102F1824292F80031112BB7
S113401010D192F8073113F010000DD02B680B600B
S11340206B684B60102382F80731204630BD6FF077
S1134030110030BD6FF0120030BD00BF1C710020B4
S11340402DE9F347077A3A4B07F00F057FB24FEAA1
S1134050D7798046494628469847028AD8F80410FA
S113406040F2FF339A421ABF02F1FF339BB2134668
S1134070022D044603EA010628D8D8F80050B5F109
S1134080005F0AD32B4B4819984206D815F0030554
S113409003D1002F05DB914214D2E368002B41D0F9
S11340A00125E37C1B0740D4234B01A89847E37CFC
S11340B0224A13F0400A0ED001A89047012002B012
S11340C0BDE8F0872EB1E368002BEAD16FF0110050
S11340D0F5E73546E5E743F04003E37401A890476C
S11340E0D8F800302360D8F804306360E37CC4F867
S11340F008A069F3C71365F34513E37498F809300E
S113410013B1B6FA86F35B09E27C002F63F3041261
S11341102046E2744FF00001B4BF094B094B9847A5
S11341200020CCE76FF01200C9E70220C7E700BF08
S113413075330000FF1F0320A5110000B311000018
S1134140E935000041370000064B002908BF194635
S1134150012802D1044B5960704708B9024B196019
S1134160704700BF4D33000054700020084B0029F5
S113417008BF194610B9074B99607047012802D14E
S1134180044BD9607047022804BF024B1961704781
S11341904D33000054700020004B1847ED380000E8
S11341A0004B1847ED380000004B1847ED3800006D
S11341B0004B1847ED380000836813F00E0FFBD155
S11341C00078C0097047000010B5044608B30068C1
S11341D0003018BF0120114B114950229847206824
S11341E0104B9847B0B923689A6812F00E0FFBD1B0
S11341F01878C0F3400068B95A7802F00F0242F010
S1134200B0025A705A7802F0F00242F00B025A706F
S113421010BDE0E76FF0100010BD00BFDD1F00000F
S1134220B0C70000B9410000F8B50E461446054673
S113423070B30068003018BF0120324B32497A2233
S113424098472868314B9847002857D12A689368C3
S113425013F00E0FFBD11378C3F34003002B4DD1A1
S1134260A4FB06673C461D4654EA05010DD1B6F58C
S11342707A3F39D015D8B6F5FA4F31D009D8B6F50A
S1134280FA5F26D0B6F57A5F22D06FF00C00F8BD45
S1134290D3E7B6F57A4F25D0B6F5FA3FF5D1042326
S11342A017E0B6F5FA1F23D007D8B6F5FA2F1DD0BC
S11342B0B6F57A2FE9D107230BE0B6F5FA0F19D03A
S11342C0B6F57A0F18D0B6F57A1FDED1092300E0CF
S11342D00123517801F0F0010B4353700020F8BD25
S11342E00223F6E70323F4E70523F2E70623F0E7C6
S11342F00823EEE70A23ECE70B23EAE76FF010004C
S1134300F8BD00BFDD1F0000B0C70000B9410000C8
S113431010B5044688B10068003018BF0120074B6F
S11343200749FB2298472368986810F00E00FBD1D8
S11343301A7842F002021A7010BDF0E7DD1F000087
S1134340B0C7000010B5044668B10068003018BF5B
S1134350012040F219120449044B98472368A5220E
S11343601A73002010BDF4E7B0C70000DD1F000081
S113437000F01F03420901209840044BD20113446A
S113438009B1986170475861704700BF00800041CF
S113439037B50E4B054601A898476B090C49DB015C
S11343A0CA18C958136A14695C400C4001A85C40DF
S11343B0084B984705F01F05012303FA05F525422C
S11343C014BF1846002003B030BD00BFA511000083
S11343D000800041B311000001224309914200F022
S11343E01F0002FA00F015D006D3022923D045227B
S11343F01449154B00201847DB0103F1824303F5F0
S11344000043586082B242F08042000C9A6240F04D
S113441040400EE0DB0182B203F1824303F5004326
S113442042F0804242F4003258609A62074A42EAFB
S1134430104098627047DB0103F1824303F50043A7
S11344409860DFE7C5C70000DD1F0000000002C060
S11344502DE9F74F0F460646674DDFF8A481674CF8
S11344600121384602F0030AA84701213046A84733
S113447002213046C0470F20A0470F20A04700214B
S11344803046A8470F20A04700213846A8470F20F0
S1134490A0474FF007094FF0400B1BF0680118BF0D
S11344A001213046A8470F20A04701213846A847DC
S11344B00F20A04700213846A8470F20A047B9F194
S11344C001094FEA5B0BE8D149463046A8470F2063
S11344D0A04701213846A8470F20A047494638463F
S11344E0A8470F20A04701213046C0470F20A0470E
S11344F001213846A8470F20A047DFF808B130460D
S1134500D847CDF804B098B101213846A8470F2008
S1134510A04701213046A8470F20A047022130467A
S1134520C0470F20A0476FF0010003B0BDE8F08F33
S113453049463846A8470F20A04702213046C047C5
S11345400F20A0474FEA4A1A0AF1800A4FF00809DF
S11345504FF0800B1BEA0A0118BF01213046A8471F
S11345600F20A04701213846A8470F20A04700216B
S11345703846A8470F20A047B9F101094FEA5B0B61
S1134580E8D101213046C0470F20A0470121384619
S1134590A8470F20A0473046019B984788B10121C6
S11345A03846A8470F20A04701213046A8470F20CE
S11345B0A04702213046C0470F20A0476FF00200F9
S11345C0B3E749463846A8470F20A04702213046A2
S11345D0C0470F20A04701213846A8470F20A04715
S11345E001213046A8470F20A04702213046C0478A
S11345F00F20A047484698E77143000001120000CD
S1134600D9430000914300002DE9F74F06460F46B9
S113461093469A46002B00F0F680002A00F0F380BF
S11346207A4DDFF8F4817A4C01213846A8470121FC
S11346303046A84702213046C0470F20A0470F202C
S1134640A04700213046A8470F20A0470021384644
S1134650A8470F20A04740234FF007090093009B71
S113466013F0680118BF01213046A8470F20A04766
S113467001213846A8470F20A04700213846A84703
S11346800F20A047009BB9F101094FEA530300939F
S1134690E5D101213046A8470F20A0470121384623
S11346A0A8470F20A04749463846A8470F20A047EF
S11346B001213046C0470F20A04701213846A847B2
S11346C00F20A047534B00933046984798B10121DF
S11346D03846A8470F20A04701213046A8470F209D
S11346E0A04702213046C0470F20A0476FF00200C8
S11346F003B0BDE8F08F49463846A8470F20A047CD
S11347008BF8009080234FF008090121384601936B
S1134710A8470F20A047009B30469847019B20B133
S11347209BF800201A438BF800200021384601939F
S1134730A8470F20A047019BB9F101094FEA530391
S1134740E3D102213046C0470F20A04749463046F6
S1134750A8470F20A04701213846A8470F20A047AB
S113476049463846A8470F20A04701213046C04794
S11347700F20A0474FF0800B8AF800904FF00809F3
S113478001213846A8470F20A0473046009B984790
S113479028B19AF800304BEA03038AF8003000216C
S11347A03846A8470F20A047B9F101094FEA5B0B2F
S11347B0E6D102213046C0470F20A04701213046F0
S11347C0A8470F20A04701213846A8470F20A0473B
S11347D049463846A8470F20A04701213046C04724
S11347E00F20A04701213846A8470F20A0470121E8
S11347F03046A8470F20A04702213046C0470F206B
S1134800A047484674E74FF0FF3071E7714300005A
S11348100112000091430000D94300002DE9F74F35
S11348200F460646764DDFF8E081764C0121384686
S1134830A84701213046A84702213046C0470F202F
S1134840A0470F20A04700213046A8470F20A047CB
S113485000213846A8470F20A0474FF007094FF022
S1134860400A1AF0410118BF01213046A8470F2021
S1134870A04701213846A8470F20A0470021384609
S1134880A8470F20A047B9F101094FEA5A0AE8D115
S113489049463046A8470F20A04701213846A8477B
S11348A00F20A04749463846A8470F20A0470121BA
S11348B03046C0470F20A04701213846A8470F20A3
S11348C0A047DFF848A13046D047CDF800A098B102
S11348D001213846A8470F20A04701213046A847A8
S11348E00F20A04702213046C0470F20A0476FF099
S11348F0010003B0BDE8F08F49463846A8470F20B1
S1134900A04702213046C0470F20A0474FF00809B6
S11349104FF0800B1BF0010118BF01213046A8475E
S11349200F20A04701213846A8470F20A0470021A7
S11349303846A8470F20A047B9F101094FEA5B0B9D
S1134940E8D101213046C0470F20A0470121384655
S1134950A8470F20A0473046009B984788B1012103
S11349603846A8470F20A04701213046A8470F200A
S1134970A04702213046C0470F20A0476FF0020035
S1134980B7E749463846A8470F20A04702213046DA
S1134990C0470F20A0474FF0080900213046A84720
S11349A00F20A04701213846A8470F20A047002127
S11349B03846A8470F20A047B9F10109EDD10121DC
S11349C03046C0470F20A04701213846A8470F2092
S11349D0A0473046009B9847D0B101213846A847EC
S11349E00F20A04701213046A8470F20A0470221ED
S11349F03046C0470F20A0476FF0030079E700BF9F
S1134A007143000001120000D943000091430000EB
S1134A1049463846A8470F20A04702213046C047E0
S1134A200F20A04701213846A84701213046A84756
S1134A3002213046C0470F20A0470F20A047494617
S1134A403046A8470F20A04749463846A8470F20BC
S1134A50A0474FF007094FF0400B1BF0410118BF6E
S1134A6001213046A8470F20A04701213846A84716
S1134A700F20A04700213846A8470F20A047B9F1CE
S1134A8001094FEA5B0BE8D149463046A8470F209D
S1134A90A04701213846A8470F20A0474946384679
S1134AA0A8470F20A04701213046C0470F20A04748
S1134AB001213846A8470F20A0473046009B98475D
S1134AC000287FF405AF49463846A8470F20A04781
S1134AD002213046C0470F20A0474FF008094FF08D
S1134AE0800B1BF0020118BF01213046A8470F209C
S1134AF0A04701213846A8470F20A0470021384687
S1134B00A8470F20A047B9F101094FEA5B0BE8D190
S1134B1001213046C0470F20A04701213846A8474D
S1134B200F20A0473046009B984700287FF417AF1A
S1134B3049463846A8470F20A04702213046C047BF
S1134B400F20A0474FF0080900213046A8470F2046
S1134B50A04701213846A8470F20A0470021384626
S1134B60A8470F20A047B9F10109EDD10121304632
S1134B70C0470F20A04701213846A8470F20A0476F
S1134B803046009B984700287FF427AF49463846B3
S1134B90A8470F20A04702213046C0470F20A04756
S1134BA001213846A84701213046A8470221304652
S1134BB0C0470F20A0470F20A04749463046A847CA
S1134BC00F20A04749463846A8470F20A0474FF07A
S1134BD007094FF0400B1BF0410118BF012130467B
S1134BE0A8470F20A04701213846A8470F20A04717
S1134BF000213846A8470F20A047B9F101094FEA20
S1134C005B0BE8D149463046A8470F20A047012155
S1134C103846A8470F20A04749463846A8470F20E2
S1134C20A04701213046C0470F20A0470121384644
S1134C30A8470F20A0473046009B984700287FF4E0
S1134C4047AE49463846A8470F20A04702213046C0
S1134C50C0470F20A0474FF008094FF0800B1BF00E
S1134C60030118BF01213046A8470F20A0470121A6
S1134C703846A8470F20A04700213846A8470F20F0
S1134C80A047B9F101094FEA5B0BE8D10121304695
S1134C90C0470F20A04701213846A8470F20A0474E
S1134CA03046009B984700287FF459AE4946384661
S1134CB0A8470F20A04702213046C0470F20A04735
S1134CC0DFF898A0DFF89890082301934FF0800B49
S1134CD01BF0C00118BF01213046D0470F20C84740
S1134CE001213846D0470F20C84700213846D04715
S1134CF00F20C847019B013B4FEA5B0B0193E7D1AF
S1134D0001213046DFF85CB0D8470F20C8470121A5
S1134D103846D0470F20C8473046009B98470028A4
S1134D207FF45BAE01993846D0470F20C847022173
S1134D303046D8470F20C84701213846D0470F20B6
S1134D40C84701213046D0470F20C84702213046CA
S1134D50D8470F20C8470198CBE500BF7143000036
S1134D6001120000D94300002DE9F74F0F46064613
S1134D70864D019201213846A84701213046A847B3
S1134D80DFF81082824C02213046C0470F20A04732
S1134D900F20A04700213046A8470F20A04700213C
S1134DA03846A8470F20A0474FF007094FF0400AA4
S1134DB01AF0410118BF01213046A8470F20A0472F
S1134DC001213846A8470F20A04700213846A847AC
S1134DD00F20A047B9F101094FEA5A0AE8D1494620
S1134DE03046A8470F20A04701213846A8470F2086
S1134DF0A04749463846A8470F20A047012130461E
S1134E00C0470F20A04701213846A8470F20A047DC
S1134E10DFF884A13046D04798B101213846A8472D
S1134E200F20A04701213046A8470F20A0470221A8
S1134E303046C0470F20A0476FF0010003B0BDE823
S1134E40F08F49463846A8470F20A0470221304634
S1134E50C0470F20A0474FF008094FF0800B1BF00C
S1134E60010118BF01213046A8470F20A0470121A6
S1134E703846A8470F20A04700213846A8470F20EE
S1134E80A047B9F101094FEA5B0BE8D10121304693
S1134E90C0470F20A04701213846A8470F20A0474C
S1134EA03046D04788B101213846A8470F20A04793
S1134EB001213046A8470F20A04702213046C047B1
S1134EC00F20A0476FF00200B8E749463846A847CC
S1134ED00F20A04702213046C0470F20A0474FF0C3
S1134EE008094FF0800B019B13EA0B0118BF012145
S1134EF03046A8470F20A04701213846A8470F2075
S1134F00A04700213846A8470F20A047B9F101095E
S1134F104FEA5B0BE7D101213046C0470F20A04781
S1134F2001213846A8470F20A0473046D04788B112
S1134F3001213846A8470F20A04701213046A84741
S1134F400F20A04702213046C0470F20A0476FF032
S1134F50030073E749463846A8470F20A0470221BB
S1134F603046C0470F20A04701213846A8470F20EC
S1134F70A04701213046A8470F20A0470221304610
S1134F80C0470F20A047484658E700BF71430000C0
S1134F9001120000D9430000914300002DE9F74FAE
S1134FA006460F469246002A00F04881A54DDFF8D8
S1134FB09C82A54C01213846A84701213046A847C8
S1134FC002213046C0470F20A0470F20A0470021F0
S1134FD03046A8470F20A04700213846A8470F2095
S1134FE0A0474FF007094FF0400B1BF0410118BFD9
S1134FF001213046A8470F20A04701213846A84781
S11350000F20A04700213846A8470F20A047B9F138
S113501001094FEA5B0BE8D149463046A8470F2007
S1135020A04701213846A8470F20A04749463846E3
S1135030A8470F20A04701213046C0470F20A047B2
S113504001213846A8470F20A047DFF804B23046B4
S1135050D847CDF804B098B101213846A8470F20AD
S1135060A04701213046A8470F20A047022130461F
S1135070C0470F20A0476FF0020003B0BDE8F08FD7
S113508049463846A8470F20A04702213046C0476A
S11350900F20A0474FF0080900213046A8470F20F1
S11350A0A04701213846A8470F20A04700213846D1
S11350B0A8470F20A047B9F10109EDD101213046DD
S11350C0C0470F20A04701213846A8470F20A0471A
S11350D03046019B984788B101213846A8470F20E4
S11350E0A04701213046A8470F20A047022130469F
S11350F0C0470F20A0476FF00300BEE7494638467B
S1135100A8470F20A04702213046C0470F20A047E0
S113511001213846A84701213046A84702213046DC
S1135120C0470F20A0470F20A04749463046A84754
S11351300F20A04749463846A8470F20A0474FF004
S113514007094FF0400B1BF0410118BF0121304605
S1135150A8470F20A04701213846A8470F20A047A1
S113516000213846A8470F20A047B9F101094FEAAA
S11351705B0BE8D101213046A8470F20A04701214D
S11351803846A8470F20A04749463846A8470F206D
S1135190A04701213046C0470F20A04701213846CF
S11351A0A8470F20A0473046019B984788B10121AA
S11351B03846A8470F20A04701213046A8470F20B2
S11351C0A04702213046C0470F20A0476FF00500DA
S11351D053E749463846A8470F20A0474FF0800BB5
S11351E08AF800904FF0080901213846A8470F209B
S11351F0A0473046019B984728B19AF800304BEA03
S113520003038AF8003000213846A8470F20A0473E
S1135210B9F101094FEA5B0BE6D101213846A847F1
S11352200F20A04701213046A8470F20A0470221A4
S11352303046C0470F20A04748461EE74FF0FF30D6
S11352401BE700BF7143000001120000D9430000B6
S1135250914300002DE9F74F0F4606467A4D01921F
S113526001213846A84701213046A847DFF8E081EC
S1135270764C02213046C0470F20A0470F20A0479C
S113528000213046A8470F20A04700213846A847F0
S11352900F20A0474FF007094FF0400A1AF06001B1
S11352A018BF01213046A8470F20A04701213846E6
S11352B0A8470F20A04700213846A8470F20A04741
S11352C0B9F101094FEA5A0AE8D149463046A847DC
S11352D00F20A04701213846A8470F20A047494680
S11352E03846A8470F20A04701213046C0470F2069
S11352F0A04701213846A8470F20A047DFF854A152
S11353003046D04798B101213846A8470F20A0471E
S113531001213046A8470F20A04702213046C0474C
S11353200F20A0476FF0010003B0BDE8F08F49469D
S11353303846A8470F20A04702213046C0470F2017
S1135340A0474FF0080900213046A8470F20A04786
S113535001213846A8470F20A04700213846A84716
S11353600F20A047B9F10109EDD101213046C04712
S11353700F20A04701213846A8470F20A0473046F8
S1135380D04788B101213846A8470F20A047012102
S11353903046A8470F20A04702213046C0470F20BF
S11353A0A0476FF00200BFE749463846A8470F20E0
S11353B0A04702213046C0470F20A0474FF00809FC
S11353C04FF0800B019B13EA0B0118BF01213046FB
S11353D0A8470F20A04701213846A8470F20A0471F
S11353E000213846A8470F20A047B9F101094FEA28
S11353F05B0BE7D101213046C0470F20A0470121B4
S11354003846A8470F20A0473046D0470028B9D1D6
S113541049463846A8470F20A04702213046C047D6
S11354200F20A04701213846A8470F20A04701219B
S11354303046A8470F20A04702213046C0470F201E
S1135440A047484670E700BF714300000112000006
S1135450D9430000914300002DE9F04F85B0044684
S11354600D469A460392002A00F0CE85BAF1000F49
S113547000F0CA850E9B002B00F0C6850F9B002B05
S113548000F0C2855A4FDFF874B15A4E0121284604
S1135490B84701212046B84702212046D8470F20AB
S11354A0B0470F20B04700212046B8470F20B0472F
S11354B000212846B8470F20B0474FF007084FF0A7
S11354C04009CDF804B019F0400118BF012120466D
S11354D0B8470F20B04701212846B8470F20B047EE
S11354E000212846B8470F20B047B8F101084FEA19
S11354F05909E8D141462046B8470F20B047012159
S11355002846B8470F20B04741462846B8470F20E1
S1135510B047019B0121204698470F20B047012145
S11355202846B8470F20B0472046334B9847A8B1C8
S113553001212846B8472F4D0F20A84701212046B6
S1135540B8470F20A84702212046019B98470F2007
S1135550A8476FF0020005B0BDE8F08F4146284629
S1135560B8470F20B04702212046019B98470F20DF
S1135570B047204E4FF008084FF0800919F00F0192
S113558018BF01212046B8470F20B0470121284603
S1135590B8470F20B04700212846B8470F20B0472E
S11355A0B8F101084FEA5909E8D1019B01212046CD
S11355B098470F20B04701212846B8470F20B0472D
S11355C020460D4B9847D8B101212846B847094DCC
S11355D00F20A84701212046B8470F20A8470221E1
S11355E02046019B98470F20A8476FF00300B2E7BD
S11355F0714300000112000091430000D9430000F0
S113560041462846B8470F20B04702212046019B57
S113561098470F20B0479E4E4FF008084FF080097E
S113562019F0010118BF01212046B8470F20B047E7
S113563001212846B8470F20B04700212846B84723
S11356400F20B047B8F101084FEA5909E8D1019B8E
S11356500121204698470F20B04701212846B8472A
S11356600F20B04720468B4B98470028ACD14146C9
S11356702846B8470F20B047019B0221204698478F
S11356800F20B04701212846B8470F20B047012119
S11356902046B8470F20B047019B02212046984777
S11356A00F20B04701212846B84701212046B847BA
S11356B0019B0221204698470F20B0470F20B04796
S11356C041462046B8470F20B04741462846B847D0
S11356D00F20B0476E4E4FF007084FF0400919F005
S11356E0400118BF01212046B8470F20B0470121CF
S11356F02846B8470F20B04700212846B8470F2056
S1135700B047B8F101084FEA5909E8D141462046AB
S1135710B8470F20B04701212846B8470F20B047AB
S113572041462846B8470F20B047019B0121204637
S113573098470F20B04701212846B8470F20B047AB
S11357402046544B984700287FF4F2AE4146284641
S1135750B8470F20B04702212046019B98470F20ED
S1135760B0474FF0080800212046B8470F20B04743
S113577001212846B8470F20B04700212846B847E2
S11357800F20B047B8F10108EDD1019B012120465B
S113579098470F20B04701212846B8470F20B0474B
S11357A020463C4B984700287FF40EAF41462846DC
S11357B0B8470F20B047019B0221204698470F208D
S11357C0B04701212846B84701212046B847019B2C
S11357D00221204698470F20B0470F20B04741468A
S11357E02046B8470F20B04741462846B847DFF85F
S11357F0A0800F20B0474FF00709402616F0400163
S113580018BF01212046B8470F20C0470121284670
S1135810B8470F20C04700212846B8470F20C0478B
S1135820B9F101094FEA5606E8D101212046B847EB
S11358300F20C04701212846B8470F20C0474946DA
S11358402846B8470F20C047019BDFF848B0104EE8
S11358500121204698470F20C04701212846B84718
S11358600F20C0472046D847B0B101212846B84789
S11358700F20B04701212046B8470F20B04702212E
S11358802046019B98470F20B0476FF0050062E661
S1135890011200009143000049462846B8470F20F2
S11358A0C0478AF800904FF008084FF080090121A2
S11358B02846B8470F20B0472046D84728B19AF861
S11358C0003049EA03038AF8003000212846B8472B
S11358D00F20B047B8F101084FEA5909E7D1012177
S11358E02846B8470F20B04701212046B8470F206B
S11358F0B047019B0221204698470F20B047012161
S11359002846B84701212046B847019B022120467A
S113591098470F20B0470F20B04741462046B8476C
S11359200F20B04741462846B8470F20B0474FF0F4
S113593007084FF0400919F0400118BF0121204623
S1135940B8470F20B04701212846B8470F20B04779
S113595000212846B8470F20B047B8F101084FEAA4
S11359605909E8D141462046B8470F20B0470121E4
S11359702846B8470F20B04741462846B8470F206D
S1135980B047019B0121204698470F20B0470121D1
S11359902846B8470F20B0472046B34B9847002805
S11359A07FF4C6AD41462846B8470F20B0470221D0
S11359B02046019BDFF8B48298470F20B0474FF090
S11359C008094FF0800A1AF0010118BF012120468E
S11359D0C0470F20B04701212846C0470F20B047D9
S11359E000212846C0470F20B047B9F101094FEA0A
S11359F05A0AE8D101212046DFF874A2D0470F20CB
S1135A00B04701212846C0470F20B0472046964B97
S1135A10984700287FF4D8AD49462846C0470F2050
S1135A20B04702212046D0470F20B0470121284625
S1135A30C04701212046C04702212046D0470F20FD
S1135A40B0470F20B04749462046C0470F20B04713
S1135A5049462846C0470F20B047DFF810824FF070
S1135A6007094FF0400A1AF0400118BF01212046EF
S1135A70C0470F20B04701212846C0470F20B04738
S1135A8000212846C0470F20B047B9F101094FEA69
S1135A905A0AE8D101212046C0470F20B04701210E
S1135AA02846C0470F20B04749462846C0470F2024
S1135AB0B047DFF8BCA101212046D0470F20B047F2
S1135AC001212846C0470F20B0472046664B98471F
S1135AD0CDF808A000287FF4C8AE49462846C04740
S1135AE00F20B047DFF884A1039B4FF0800B83F8AD
S1135AF00090D0464FF0080901212846D0470F20D6
S1135B00B0472046584B984728B1039B039A1B780B
S1135B104BEA0303137000212846C0470F20B04707
S1135B20B9F101094FEA5B0BE6D101212846C047D0
S1135B300F20B04701212046C0470F20B047029BE9
S1135B400221204698470F20B04701212846C0472C
S1135B5001212046C047029B0221204698470F207E
S1135B60B0470F20B04749462046C0470F20B047F2
S1135B7049462846C0470F20B047DFF8F0804FF071
S1135B8007094FF0400A1AF0400118BF01212046CE
S1135B90C0470F20B04701212846C0470F20B04717
S1135BA000212846C0470F20B047B9F101094FEA48
S1135BB05A0AE8D149462046C0470F20B047012180
S1135BC02846C0470F20B04749462846C0470F2003
S1135BD0B047029B0121204698470F20B04701217E
S1135BE02846C0470F20B04720461F4B984700283F
S1135BF07FF49EAC49462846C0470F20B047022197
S1135C002046029BDFF8648098470F20B0474FF08E
S1135C1008094FF0800A1AF0020118BF012120463A
S1135C20C0470F20B04701212846C0470F20B04786
S1135C3000212846C0470F20B047B9F101094FEAB7
S1135C405A0AE8D1029B0121204698470F20B04709
S1135C5001212846C0470F20B0472046024B9847F1
S1135C6000287FF4B1AC05E09143000071430000CB
S1135C70D943000049462846C0470F20B047029B3D
S1135C800221204698470F20B04701212846C047EB
S1135C9001212046C047029B0221204698470F203D
S1135CA0B0470F20B04749462046C0470F20B047B1
S1135CB049462846C0470F20B047DFF854834FF0C9
S1135CC007094FF0400A1AF0400118BF012120468D
S1135CD0C0470F20B04701212846C0470F20B047D6
S1135CE000212846C0470F20B047B9F101094FEA07
