S01200004D756C746953656E73652E7372656309
S214000000E85001208D0A0000890A0000890A0000D5
S214000010890A0000890A0000890A00000000000022
S214000020000000000000000000000000890A000038
S214000030890A000000000000890A0000890A000002
S214000040890A0000890A0000890A0000890A00005F
S214000050890A0000890A0000890A0000890A00004F
S214000060890A0000890A0000890A0000890A00003F
S214000070890A0000890A0000890A0000890A00002F
S214000080890A0000890A0000890A0000890A00001F
S214000090890A0000890A0000890A0000890A00000F
S2140000A0890A0000890A0000890A0000890A0000FF
S2140000B0890A00003D35000051350000912C0000F3
S2140000C09D2C0000A92C0000B52C0000C12C0000BF
S2140000D0890A0000890A0000890A0000890A0000CF
S2140000E0890A0000890A0000890A0000890A0000BF
S2140000F000000000453600001D3A0000313A0000BE
S214000100453A0000593A0000890A0000890A0000B2
S214000110890A0000890A0000890A0000890A00008E
S214000120890A0000890A0000890A0000890A00007E
S214000130890A0000890A0000890A0000890A00006E
S214000140890A0000890A00006D3A0000813A000022
S214000150953A0000A93A0000890A0000890A0000C2
S214000160890A0000890A0000890A0000890A00003E
S214000170890A0000890A0000000000000000000054
S21400018045520000515200005D52000069520000C6
S214000190FD2C0000890A0000890A0000890A000078
S2140001A0890A0000890A0000890A0000890A0000FE
S2140001B0890A0000890A0000890A0000890A0000EE
S2140001C0890A0000890A0000890A0000890A0000DE
S2140001D0890A0000890A0000890A0000890A0000CE
S2140001E0890A0000890A0000890A0000FD3F000015
S2140001F0890A0000890A0000890A0000890A0000AE
S214000200890A0000890A0000890A0000890A00009D
S214000210890A0000890A0000890A0000890A00008D
S214000220890A0000890A0000890A0000890A00007D
S214000230890A0000890A0000890A0000890A00006D
S214000240890A0000890A0000890A0000890A00005D
S214000250890A0000890A0000890A0000890A00004D
S214000260890A000010B5054C237833B9044B13B146
S2140002700448AFF300800123237010BDC0020020A5
S21400028000000000F41701000C4B43B10C480D4968
S21400029010B5AFF300800C48036823B910BD0A48B8
S2140002A0036833B97047094B002BF7D0BDE8104000
S2140002B01847064B002BF5D0184700BF000000007B
S2140002C0F4170100C4020020F4170100000000002B
S2140002D008B5034B9847034B9847034B984708BD10
S2140002E0A1120000BDD8000099B4000010B4034667
S2140002F00848002200F8312F074CB3FBF1F201FB4F
S2140003001233E35C00F8013D1346002AF5D110BC19
S214000310704700BFDC02002058E700000FB42DE94C
S214000320F04182B008AB53F8046B00933378002B8F
S21400033000F0A680554D564CDFF864812AE0771C05
S2140003407378633B152B21D8DFE803F00B362020AB
S2140003502020202020202020502020206A2020201E
S2140003602080009B1A1D00921B688DF807302846D7
S214000370A0470028FBD001220DF10701D8F80000A5
S214000380444B98472846A0470028FBD07E1C7B7825
S214000390002B75D0252BD2D02846A0470028FBD0AE
S2140003A001223146D8F800003A4B98472846A04725
S2140003B00028FBD03746E9E7009B1A1D00920A2169
S2140003C01868354B984706462846A0470028FBD0B5
S2140003D03046324B984782B23146D8F800002D4B53
S2140003E098472846A0470028FBD0CFE7009B1A1D59
S2140003F0009208211868284B984706462846A047CA
S2140004000028FBD03046254B984782B23146D8F8B4
S2140004100000204B98472846A0470028FBD0B5E7A9
S214000420009B1A1D00921E682846A0470028FBD095
S21400043030461A4B984782B23146D8F80000154B22
S21400044098472846A0470028FBD09FE7009B1A1D28
S214000450009210211868104B984706462846A04779
S2140004600028FBD030460D4B984782B23146D8F86C
S2140004700000084B98472846A0470028FBD085E791
S21400048002B0BDE8F04104B0704700BFDC74002045
S214000490E920000031180000ED0200001DDB00001E
S2140004A0207F00202DE9F04387B0A44B1B78002B5B
S2140004B000F0E180012B00F0FC80022B00F0178199
S2140004C09F4B5A1ED11C0191911C00913921382056
S2140004D09C4CA047C60F0028C0F227810022974BED
S2140004E01A70994D29789948994CA0476978994887
S2140004F0A047A9789848A047E9789848A04705A853
S214000500DFF80493C847DFF87082D8F88020D8F860
S214000510A030D8F890405C4014405C4005A8904F4E
S214000520B847904DC4F380042C7004A8C847D8F888
S2140005300021D8F82031D8F810415C4014405C40C7
S21400054004A8B84784F0010404F00104864B1C702C
S21400055003A8C847D8F80021D8F82031D8F81041A9
S2140005605C4014405C4003A8B84784F00204C4F31F
S21400057040047E4B1C702B78002B00F050817C4B87
S2140005801B78012B00F042817A4B1B78002B00F081
S21400059041810822784BC3F898201022764BC3F886
S2140005A098201E20754CA047C0F34010744B18705E
S2140005B02E20A047C0F34010724B18703E20A04774
S2140005C0C0F34010704B1870664B1B786F4A127859
S2140005D09A4207D06E4A6F49002B18BF11466E48E4
S2140005E05B4B9847664B1B786C4A12789A4207D04A
S2140005F06B4A6849002B08BF11466A48544B984717
S214000600604B1B78684A12789A4207D0644A614960
S214000610002B08BF114665484D4B98475A4B1B7830
S214000620634A12789A4207D0624A5A49002B08BF9A
S21400063011466148464B9847604B1B78002B40F0AC
S214000640B381494B1B78002B00F0968101225C4B4E
S2140006501A70002EC0F2EB805A4B93F829205C21CA
S2140006605B20594B9847C60F0028C0F213815748A5
S214000670374B98479CE14FF4C052554B9A80022066
S214000680544B98470123544A00215448544CA047E1
S2140006900646014653482E4B9847012E05D0524831
S2140006A02B4B984700224C4B1A700122234B1A7092
S2140006B017E741F60202464B9A800220454B9847C0
S2140006C001234A4A00214548454CA04706460146B4
S2140006D047481F4B9847012E05D046481C4B984765
S2140006E00022424B1A700222144B1A70F9E641F6A9
S2140006F00102374B9A800220364B984701233E4A28
S21400070000213648364CA047064601463B48104B6B
S2140007109847012E05D03A480D4B98470022364B95
S2140007201A700322054B1A70DBE601213548084B88
S21400073098474FF0FF32044B1A60CFE67E750020D4
S214000740B97F0020E56E0000B87F002084E8000036
S2140007501D03000090E800009CE80000A8E80000E8
S214000760DB140000B37F00207C8500207F7500200E
S2140007706D8200207D7500200080004149D9000070
S2140007807575002094820020797500204C85002025
S21400079074E700006CE70000B4E8000089750020EC
S2140007A07CE70000C8E8000074750020E0E8000060
S2140007B07882002080E70000F8E8000077750020C7
S2140007C06E7C00202C7F0020956B000048EA00001D
S2140007D0001C00434D150000628500207074002048
S2140007E0A113000088E700009CE700004D8500206C
S2140007F0C8E70000DCE700005785002008E8000096
S21400080018E8000040E80000CD1400000822C8F8F0
S2140008109C20C2E60822734BC3F89420BDE6714BB9
S2140008200822C3F894201022C3F89420B9E6314673
S2140008306D486E4B98476E4B1B78013B042B0DD8CA
S21400084001A252F823F000BF590600006D08000010
S214000850650800008D0800009F0800006548634B8F
S2140008609847A5E06448614B9847A1E05C215B206F
S214000870624B9847C60F002803DB61485B4B9847DE
S21400088096E001215F48594B9847F6E75E48574B7C
S21400089098478DE001215D48544B9847E7E60621CE
S2140008A032205B4B984732205A4B9847062132201D
S2140008B0594B984718B159484C4B984778E05848D8
S2140008C04A4B9847F7E75648484B984768E0314602
S2140008D05448464B9847544B1B78013B032B03D890
S2140008E0DFE803F0730A06195048404B98471DE0AE
S2140008F04F483E4B984719E0392138203F4B9847E0
S214000900002803DB4B48394B98470FE001214A4843
S214000910364B9847F6E74948344B984706E0484830
S214000920324B98475AE0474B1B78D3B1464B1A7860
S214000930464B1A70434B1A78454B1A70454B1A783B
S214000940454B1A70454B1A78454B1A70454B1A782A
S214000950454B1A70454B1A78454B1A7007B0BDE8E0
S214000960F0830022304B1A70384B1B78002BDDD0FA
S21400097040481E4B9847D9E700221D4B1A7017E0D7
S21400098000241B4B1C7021463220214B98473220F6
S214000990204B9847214632201F4B9847002892D07C
S2140009A03548124B984703E0274B1B78002BE7D0BF
S2140009B0274B1B78002BB6D1224B1B78002BD0D0B0
S2140009C00122194B1A70002E81DB2C4B93F82A203B
S2140009D0392138202A4B9847011EA0DB2948034BB3
S2140009E09847A3E70080004120E900001D030000AF
S2140009F06E7C002060E9000084E900005D5A00007B
S214000A00D8E900009CE90000F0E9000008EA0000D0
S214000A1095D900002D150000F1D800008CEA0000E2
S214000A2060EA0000D4EA00006485002014EB0000B1
S214000A3038EB00008CEB000050EB0000A4EB00004D
S214000A40BCEB00007F7500207C85002077750020B9
S214000A504D780020B37F00204C850020757500205F
S214000A608975002094820020747500207975002016
S214000A707882002014EC0000B8EA00002C7F0020EA
S214000A80956B0000FCEB0000FEE7000008B5174B76
S214000A90174A9A4210D0174B144A9A420CD2013B7E
S214000AA09B1A23F0030304331344114951F8040B33
S214000AB042F8040B9A42F9D10F4B104A9A420AD2D6
S214000AC0013B9B1A23F0030304331344002142F82E
S214000AD0041B9342FBD10A4A0A4B23F07F03936020
S214000AE0094B9847094B9847FEE700BF00000020D7
S214000AF0F4170100B0020020E8900020C002002099
S214000B0000ED00E00000000005DA0000BDA60000D1
S214000B10244B04225A6002F180429A624FF0404110
S214000B20996293F8422002F0FE0242F0010283F836
S214000B30422093F8312002F0F00242F0010283F8DE
S214000B40312008225A6002F180429A62996293F834
S214000B50432002F0FE0242F0010283F8432093F89D
S214000B60312002F00F0242F0100283F831204FF4D9
S214000B708072C3F8842002F18042C3F8A820C3F82C
S214000B80A81093F8C82002F0FE0242F0010283F893
S214000B90C82093F8B42002F0F00242F0010283F875
S214000BA0B420704700800041044A136A43F0800373
S214000BB013624022024BC3F8202170470008004011
S214000BC0001C004008B5054B9847054B9847002287
S214000BD004490548054B984708BD00BFA90B00000F
S214000BE0110B0000001C0043707400204513000029
S214000BF008B5054AD36943F40073D3610349044832
S214000C00044B984708BD00BF00080040002400427F
S214000C10287400204114000008B5054A936943F083
S214000C200203936103490448044B984708BD00BF7C
S214000C30000800400020004164740020E914000011
S214000C40044B1A6942F400221A61DA6942F400621F
S214000C50DA6170470008004008B5034B984703491F
S214000C600348044B984708BD410C0000002C004286
S214000C7068740020AD190000024A136943F040036F
S214000C80136170470008004008B5034B98470349B6
S214000C900348044B984708BD790C0000004000410B
S214000CA00C740020B9150000054B4022C3F89C20A8
S214000CB0C3F88C20034A536943F48053536170474A
S214000CC0001C004000080040104B93F8482002F03B
S214000CD0FE0242F0010283F8482093F8342002F026
S214000CE0F00242F0020283F8342093F8492002F022
S214000CF0FE0242F0010283F8492093F8342002F005
S214000D000F0242F0200283F8342070470080004132
S214000D1010B582B0064B9847002300931023054A6F
S214000D2005490648064CA047064B984702B010BD3A
S214000D30A90C000010030020003000408C74002036
S214000D40911F0000C90C00002C4B4FF48052C3F8D2
S214000D5088202B49C3F8A8104FF04041C3F8A810CC
S214000D60C3F8942093F8CC2002F0FE0242F0010271
S214000D7083F8CC2093F8B62002F0F00242F002028C
S214000D8083F8B6204FF40052C3F884201D4AC3F8F7
S214000D90A8201D4AC3F8A82093F8CD2002F0FB0235
S214000DA083F8CD2093F8CD2002F0FE0242F0010237
S214000DB083F8CD2093F8B62002F00F0242F020020E
S214000DC083F8B6204FF40042C3F888200F48C3F8D3
S214000DD0A800C3F8A810C3F8942093F8CF2002F018
S214000DE0FE0242F0010283F8CF2093F8B72002F00B
S214000DF00F0242F0200283F8B720704700800041BF
S214000E000010004000200240000002C000800040A9
S214000E10054B4022C3F80821C3F88C20034A136A06
S214000E2043F0010313627047001C004000080040B6
S214000E3008B5054B98474FF086410448044B984741
S214000E40044B984708BD00BF110E000078740020C0
S214000E50DD190000490D0000054B4022C3F80C21A7
S214000E60C3F88C20034A136A43F0020313627047E8
S214000E70001C004000080040104B93F8D02002F001
S214000E80FE0242F0010283F8D02093F8B82002F068
S214000E90F00242F0020283F8B82093F8D12002F064
S214000EA0FE0242F0010283F8D12093F8B82002F047
S214000EB00F0242F0200283F8B820704700800041FD
S214000EC010B582B0064B9847002300931023054ABE
S214000ED005490648064CA047064B984702B010BD89
S214000EE0590E00002003002000040043DC7400209C
S214000EF0911F0000790E000008B50248024B984783
S214000F0008BD00BF10E000E0191500001E4B4FF0B2
S214000F1080729A604FF0804199621C4898625A61CC
S214000F2093F8582002F0FB0283F8582093F85820D4
S214000F3002F0FE0242F0010283F8582093F83C20AB
S214000F4002F0F00242F0070283F83C204FF00072F5
S214000F509A6099620E4999625A6193F8592002F094
S214000F60FB0283F8592093F8592002F0FE0242F063
S214000F70010283F8592093F83C2002F00F0242F059
S214000F80700283F83C20704700800041000100C0DA
S214000F90000200C04022074BC3F8A820A3F5A053C8
S214000FA01A6942F480621A619A6942F001029A61F3
S214000FB0704700BF001C004008B5034B9847034B22
S214000FC09847034B984708BD950F0000652300001F
S214000FD00D0F0000024A536943F480735361704753
S214000FE00008004008B5064B9847482205490120EE
S214000FF0054B98470548064B0360064B984708BDC7
S214001000D50F000030EC0000B126000074740020FC
S2140010100020004075520000904B93F8552102F0D6
S214001020FE0242F0010283F8552193F83A2102F0BD
S2140010300F0242F0B00283F83A2193F8502002F0F3
S214001040FE0242F0010283F8502093F8382002F0A6
S214001050F00242F00B0283F8382093F84B2102F09E
S214001060FE0242F0010283F84B2193F8352102F08C
S2140010700F0242F0B00283F8352193F84C2102F0BB
S214001080FE0242F0010283F84C2193F8362102F06A
S214001090F00242F00B0283F8362193F84D2002F05E
S2140010A0FE0242F0010283F84D2093F8362002F04B
S2140010B00F0242F0B00283F8362093F84C2002F07C
S2140010C0FE0242F0010283F84C2093F8362002F02C
S2140010D0F00242F00B0283F8362093F84F2102F01C
S2140010E0FE0242F0010283F84F2193F8372102F006
S2140010F00F0242F0B00283F8372193F84E2102F037
S214001100FE0242F0010283F84E2193F8372102F0E6
S214001110F00242F00B0283F8372193F8522102F0D6
S214001120FE0242F0010283F8522193F8392102F0C0
S214001130F00242F00B0283F8392193F8542102F0B2
S214001140FE0242F0010283F8542193F83A2102F09D
S214001150F00242F00B0283F83A2193F84F2002F097
S214001160FE0242F0010283F84F2093F8372002F087
S2140011700F0242F0B00283F8372093F8522002F0B4
S214001180FE0242F0010283F8522093F8392002F062
S214001190F00242F00B0283F8392093F8532002F055
S2140011A0FE0242F0010283F8532093F8392002F041
S2140011B00F0242F0B00283F8392093F8502102F073
S2140011C0FE0242F0010283F8502193F8382102F023
S2140011D0F00242F00B0283F8382193F8512102F016
S2140011E0FE0242F0010283F8512193F8382102F002
S2140011F00F0242F0B00283F8382193F84E2002F036
S214001200FE0242F0010283F84E2093F8372002F0E7
S214001210F00242F00B0283F8372093F8512002F0D8
S214001220FE0242F0010283F8512093F8382002F0C3
S2140012300F0242F0B00283F8382093F8532102F0F0
S214001240FE0242F0010283F8532193F8392102F09E
S2140012500F0242F0B00283F8392170470080004147
S214001260044B1A6942F480421A61DA6942F00402B9
S214001270DA6170470008004008B5044B98470449F7
S2140012800448054B9847054B984708BD6112000077
S214001290000800422C75002091180000191000006C
S2140012A008B5154B9847154B9847154B9847154B5F
S2140012B09847154B9847154B9847154B9847154B2D
S2140012C09847154B9847154B9847154A536943F46A
S2140012D0804353614022134BC3F8A420124B984717
S2140012E0024612491248134B9847134B9847134B24
S2140012F09847134B984708BD112A0000C50B0000FD
S214001300F10B0000190C0000590C0000890C0000BD
S214001310110D0000310E0000C10E0000F90E000095
S21400132000080040001C0040B73F000000380040A6
S21400133048750020C11C0000B90F0000E50F000032
S2140013407912000038B50C46054658B1081C18BF7F
S214001350012039220449054B984721462846044B6C
S214001360984738BD0020F4E75CEC0000B12600008A
S2140013701929000038B50D4604464E2205490030AE
S21400138018BF0120044B984729462046034B984730
S214001390002038BD5CEC0000B1260000512900009A
S2140013A02DE9F84F0D4691469A468046E0B1EAB1DF
S2140013B0181C18BF01201C4F672239461B4EB04729
S2140013C0444640461A4B984780469AFBF0F008FB86
S2140013D010A069223946B0FA80F04009B0470027CD
S2140013E0DFF858B0134E07E00020E4E70020E2E7FD
S2140013F04744BFB2BA4514D92046D84729462046A6
S214001400B0470028FAD0294620460B4B984709F8E3
S2140014100700B8F1010FEBD909EB0703000A587073
S214001420E6E73846BDE8F88F5CEC0000B126000021
S21400143067290000792900009B2900008529000003
S21400144038B50C46054658B1081C18BF0120322294
S2140014500449054B984721462846044B984738BD13
S2140014600020F4E778EC0000B1260000A529000073
S21400147010B5044646220549003018BF0120044B2B
S21400148098472046034B984710BD00BF78EC0000F5
S214001490B1260000B529000070B50C461646054674
S2140014A060B1081C18BF01205A220549054B984711
S2140014B0324621462846044B984770BD0020F3E785
S2140014C078EC0000B1260000B9290000EFF3108385
S2140014D0036072B6BFF35F8F7047BFF35F8F03681A
S2140014E083F310887047000038B50C46054658B19F
S2140014F0081C18BF01202B220449054B984721469B
S2140015002846044B984738BD0020F4E794EC0000CA
S214001510B1260000CD2C000008B5024B1860024B27
S214001520984708BD300300207D3D000010B5044BF1
S2140015301C68044B984701462046034B984710BD4D
S21400154030030020ED290000913D000010B5044B4B
S2140015501C68044B984701462046034B984710BD2D
S21400156030030020052A0000913D000008B54369BD
S21400157003B1984708BD08B5836903B1984708BD0D
S21400158038B50C46054640F217120849003018BF19
S2140015900120074B98472846064B984701382040BD
S2140015A0002814BF6FF00D00002038BDB0EC00001E
S2140015B0B1260000D532000038B50D46044690B17D
S2140015C0081C18BF012038220849094B98472946AD
S2140015D02046084B9847034618B9074A2260074A30
S2140015E06260184638BD0020EDE700BFB0EC000092
S2140015F0B1260000593200006D1500007715000076
S2140016002DE9F8430D4690461E460446F0B1FAB161
S21400161043B3012056221E491E4B9847A14620463A
S2140016201D4B9847074620461C4B984700FB07F083
S214001630A8420FD37319984210D333464246294620
S2140016404846174CA0470020BDE8F8830020E1E795
S2140016500020DFE76FF00D00BDE8F8836FF00D00A7
S214001660BDE8F88356220A4900200A4B9847A1464F
S2140016702046094B984707462046084B984700FBEC
S21400168007F08542D9D96FF00D00BDE8F88300BF9A
S214001690B0EC0000B1260000D5320000DB320000BE
S2140016A0E33200002DE9F8430C4691461F460546F6
S2140016B018B322B38BB3012082222249224B9847CB
S2140016C0A8462846214B984706462846204B98476A
S2140016D000FB06F0A04214D33B19984215D32146CE
S2140016E040461C4B9847A0B93B464A4621464046D2
S2140016F0194CA0470020BDE8F8830020DCE7002056
S214001700DAE76FF00D00BDE8F8836FF00D00BDE876
S214001710F8836FF01000BDE8F883822209490020A4
S214001720094B9847A8462846084B98470646284639
S214001730074B984700FB06F08442D0D96FF00D00A7
S214001740BDE8F883B0EC0000B1260000D5320000FA
S214001750DB32000025350000F93300002DE9F843A0
S2140017600F461646044620B35AB301209A22204953
S214001770204B9847A14620461F4B984705462046D3
S2140017801E4B98478046394620461D4B98470346D1
S21400179060B946450FD8B7FBF5F5354445450DD835
S2140017A0324639464846174B984700231846BDE848
S2140017B0F8830020DAE76FF00C03F7E76FF00C030E
S2140017C0F4E79A220A4900200A4B9847A146204689
S2140017D0094B984705462046084B984780463946A9
S2140017E02046074B984703460028D4D0DEE700BFC4
S2140017F0B0EC0000B1260000D5320000DB3200005D
S214001800811500006134000010B50446F722054932
S214001810003018BF0120044B98472046034B9847DA
S21400182010BD00BFB0EC0000B1260000D5320000AD
S21400183070B50D461646044660B1081C18BF012058
S21400184034220549054B98472368324629462046E8
S214001850984770BD0020F3E7C8EC0000B1260000F2
S21400186070B50D461646044660B1081C18BF012028
S2140018703D220549054B984763683246294620466F
S214001880984770BD0020F3E7C8EC0000B1260000C2
S21400189038B50C46054658B1081C18BF0120312241
S2140018A00449054B984721462846044B984738BDBF
S2140018B00020F4E7DCEC0000B1260000592D000003
S2140018C010B5044645220549003018BF0120044BD8
S2140018D098472046034B984710BD00BFDCEC00003D
S2140018E0B1260000492E000070B50C461546064687
S2140018F068B171B1101C18BF012057220649074B6A
S21400190098472A4621463046054B984770BD00202A
S214001910F3E70020F1E700BFDCEC0000B126000092
S214001920592E000070B50D4616460446612206493B
S214001930003018BF0120054B9847324629462046FE
S214001940034B984770BD00BFDCEC0000B1260000DA
S214001950D12F000010B504466B220549003018BF91
S2140019600120044B98472046034B984710BD00BF04
S214001970DCEC0000B12600000531000038B50C464E
S214001980054658B1081C18BF0120A5220449054B7E
S214001990984721462846044B984738BD0020F4E770
S2140019A0DCEC0000B12600006D31000038B50C46B6
S2140019B0054658B1081C18BF01202C220449054BC7
S2140019C0984721462846044B984738BD0020F4E740
S2140019D0F8EC0000B1260000D731000038B50D46FF
S2140019E00446B0B1081C18BF012038220A490B4B28
S2140019F09847256029462046094B9847002807DB6C
S214001A004FF400432382074BE360074BA36000209C
S214001A1038BD0020E9E700BF14ED0000B126000045
S214001A20BD3A0000811B0000451B000010B50446AF
S214001A3051220549003018BF0120044B9847204624
S214001A40034B984710BD00BF14ED0000B126000000
S214001A50913B000038B50D4604465F22054900302C
S214001A6018BF0120044B984729462046034B984749
S214001A7038BD00BF14ED0000B1260000F53B0000A5
S214001A8038B50D46044666220549003018BF0120C9
S214001A90044B984729462046034B984738BD00BF5D
S214001AA014ED0000B1260000C13B000038B50D461D
S214001AB004466D220549003018BF0120044B9847A4
S214001AC029462046034B984738BD00BF14ED00005A
S214001AD0B1260000313C000038B50D46044674229D
S214001AE00549003018BF0120044B98472946204678
S214001AF0034B984738BD00BF14ED0000B126000028
S214001B00693C000030B585B00C46054690B1081C0F
S214001B1018BF0120B3220849084B98472368019351
S214001B2063680293A368039301A92846044B984769
S214001B3005B030BD0020EDE714ED0000B126000032
S214001B409D3C000070B584B00E4615460446A322A0
S214001B500849003018BF0120074B9847002302931E
S214001B600196039501A9A4F10800044B984704B018
S214001B7070BD00BF14ED0000B1260000051B00007C
S214001B8070B584B00E4615460446872208490030D4
S214001B9018BF0120074B9847029600230193039530
S214001BA001A9A4F10800044B984704B070BD00BF1B
S214001BB014ED0000B1260000051B000038B50D46E8
S214001BC0044650B1081C18BF0120BE220449054B2C
S214001BD0984708342C60002038BD0020F5E700BF89
S214001BE014ED0000B1260000F8B5844607682FB152
S214001BF08D683C460026C2F1010E0BE00E4B98475E
S214001C00F8BD7344A0680344AB420AD22368264654
S214001C1053B11C4663689342F3D8A06803449B1AEA
S214001C20F2E7A74204D034462046044B9847F8BD56
S214001C306046014B9847F8BDD926000005270000EE
S214001C402DE9F0474469076901370761037E13F001
S214001C50010F13D1037E13F0020F0FD154B3636844
S214001C60FB1AA268934207D3064600F11408DFF871
S214001C704890DFF848A012E0BDE8F087037E43F006
S214001C8002030376BDE8F0877569E3682046984747
S214001C9085B12C466B68FB1AAA6893420AD3404665
S214001CA0C847237C012BEFD167603A462146404661
S214001CB0D047E9E7BDE8F0874D270000E91B0000A4
S214001CC038B50D46044678B1081C18BF01203B22E3
S214001CD00649074B984729462046064B984700205A
S214001CE02061054B236038BD0020F0E730ED000092
S214001CF0B12600004D3E0000411C000010B5044611
S214001D0053220949003018BF0120084B9847204647
S214001D10074B984720B92046064B9847002010BD31
S214001D206FF0100010BD00BF30ED0000B1260000BF
S214001D30A53F0000913F000070B582B00D460446F6
S214001D4018B3081C18BF01207A221E491E4B98475C
S214001D50237E43F00103237604F114062946304619
S214001D601A4B984798B923696B6022692946304612
S214001D70174B9847237E03F0FE032376237E13F04B
S214001D80020F10D1002002B070BD0020DCE7237ED9
S214001D9003F0FE0323767F220A4900200A4B984769
S214001DA06FF01100EFE701A80A4B9847237E03F077
S214001DB0FD0323762046084B984701A8074B984713
S214001DC00020E0E730ED0000B1260000B726000056
S214001DD0E91B0000CD140000BD3F0000DB1400002E
S214001DE008B500238362C3691BB1A0F10802104640
S214001DF0984708BD08B500238362436A1BB1A0F16B
S214001E0008021046984708BD38B50446A0F10805F4
S214001E102C30034B9847236A0BB12846984738BDA9
S214001E20ED27000070B50E4615460446E0B1E9B150
S214001E30101C18BF012040F23B120F490F4B984769
S214001E40B4F84420B4F84C309A4211D1A664A4F8F1
S214001E504C500023A4F844300123236304F1080007
S214001E60074B9847284670BD0020E4E70020E2E7CD
S214001E706FF01B0070BD00BF48ED0000B1260000EB
S214001E80A139000010B50446838FB0F844209A426A
S214001E9009D0026C591C8187D15C044B98472046B8
S214001EA0034B984710BD034B984710BD913900006F
S214001EB0A1390000A93900002DE9F04782B00F468D
S214001EC090460646A0B199B1002A2DD14FF4AC72C7
S214001ED029490020294B984701A8294B984706F125
S214001EE03400284B984701A8274B984700253EE02A
S214001EF04FF4AC7220490020204B984701A8204B95
S214001F00984706F1340A50461E4B9847814601A86A
S214001F101D4B9847B9F1000F04D0B8F1000F19D146
S214001F20002524E0002522E04FF4AC72124901207F
S214001F30124B984701A8124B984706F1340A5046B0
S214001F40104B9847814601A80F4B98470025B9F1DA
S214001F50000F0CD000240D4E601C85B23919504677
S214001F60B04701344C4502D2A3B29845F4D828466F
S214001F7002B0BDE8F08700BF48ED0000B1260000C3
S214001F80CD1400002D280000DB140000A927000057
S214001F90F8B50D4616461F46044620B329B332B39D
S214001FA0181C18BF01203A221349144B98473A468A
S214001FB0314604F13400124B9847D0B9294604F153
S214001FC00800104B9847034658B90F4A62600F4AFC
S214001FD022600F4AA2600F4AE2600F4A22610F4A4F
S214001FE062611846F8BD0020DDE70020DBE7002030
S214001FF0D9E76FF00C03F4E748ED0000B1260000C7
S2140020005927000001390000B91E0000251E0000F7
S214002010851E0000091E0000E11D0000F51D0000E1
S21400202010B5044661220649003018BF0120054B52
S214002030984704F10800044B9847002010BD00BFE5
S21400204048ED0000B12600007D39000038B50C468A
S214002050054648B1081C18BF012077220349044BE7
S21400206098472560002038BD0020F6E748ED0000C0
S214002070B126000070B50C46164605468322174961
S214002080003018BF0120164B9847012C10D024B101
S214002090022C18D06FF00C0070BDAE62321C18BF58
S2140020A00122012105F108000E4B9847002070BD63
S2140020B06E62321C18BF0122022105F10800094B8E
S2140020C09847002070BDEE62321C18BF0122032123
S2140020D005F10800034B9847002070BD48ED00004E
S2140020E0B1260000B139000010B50446F8220549B3
S2140020F0003018BF0120044B984704F10800034B3A
S214002100984710BD48ED0000B12600009739000042
S2140021100F4B5978884218D030B41A46002300F086
S2140021200F0507E001335BB2042B09D0203251784B
S214002130814207D01478002CF4D18D42F2D101E010
S2140021404FF0FF33184630BC7047002318467047E0
S214002150340300200020704738B504460D46094B6E
S2140021609847094B03EB40139B78032B01D00020C4
S21400217038BD054B03EB4010836929462046984737
S21400218038BD00BF1121000034030020F0B585B033
S21400219006460D4617464D4B98470446002D5BD124
S2140021A04B4A4301D1180020C870D35C73B1484B2A
S2140021B003EB441301229A70454800EB4410C369B0
S2140021C03A46C1783046984705B0F0BD8B78032B69
S2140021D00BD03F4800EB44121446D3690C32002162
S2140021E0607898470223A370EEE70B4691F90C50EF
S2140021F00A46CE690C3201215878B047A0B1344B5C
S21400220003EB441305229A700222DA70002D09DBD4
S2140022102F4800EB4410407840F0800001212D4B01
S2140022209847D1E75878F9E7294800EB441004238B
S214002230837043780022019202929542ACBF43F02D
S214002240800303F00F038DF80C3001238DF80D305A
S21400225001A8214B9847B7E7012D0AD0022D1CD0C4
S214002260032D2AD01A4B03EB401306229A70DA701D
S214002270A2E7174A4301D1180220C870D35C2BB1DD
S214002280134B03EB441305229A7095E70B469870A0
S214002290002130460F4B98478EE70D4A4301D11870
S2140022A00420C870D35C2BB1094B03EB4413012206
S2140022B09A7081E702238B7086E7054B03EB401389
S2140022C000229A700522DA7076E700BF112100001E
S2140022D034030020694E0000115000002DE9F04143
S2140022E005461C4B984706461B4C04EB40140C3422
S2140022F021462846194B9847C0B2082809D0012124
S2140023002846174CA047012145F08000A047BDE8AD
S214002310F08100212846124FB84745F0800800217A
S2140023204046B8470C4B03EB461301229A705B6994
S21400233021462846984708B1BDE8F081064B03EBD6
S21400234046160523B37001212846B84701214046AA
S214002350B847F1E71121000034030020B14F000018
S214002360694E000010B5114B984700281CDB104C36
S2140023708022002120460F4B9847234604F1800018
S214002380FF210D4A59705A619A61DA6120338342FF
S214002390F8D10A4900200A4CA0470A490120A04764
S2140023A009490220A047002010BD00BF9148000048
S2140023B034030020B5DA000055210000DD220000BD
S2140023C015520000592100008D21000008B5014B70
S2140023D0984708BDF151000008B5014B984708BD65
S2140023E06D49000008B5014B984708BDC549000077
S2140023F008B5014B984708BDD7490000F8B5064612
S2140024000C4617460F4B9847002814DAFF200D4B52
S2140024109847051E12DB3A46214630460A4B984737
S21400242000280DDB094B68011A18567004F00304E7
S2140024301C540020F8BD6FF01300F8BD6FF01400B8
S214002440F8BD00BF11210000E5490000340300205C
S21400245008B5024600210846014B984708BD00BF54
S214002460FD23000038B50546064B9847041E07DBDB
S2140024702846054B9847054800EB4410FF23437059
S21400248038BD00BF11210000FD4A000034030020C3
S21400249038B505460E4B9847041E16DB63010D4AF9
S2140024A0D35C002B0CBF022201220A4B03EB441321
S2140024B09A702846084B9847002800DB38BD054B25
S2140024C003EB44140023A37038BD6FF01100F5E74A
S2140024D01121000034030020C14B00002DE9F04715
S2140024E086B00446077A38463F4B9847657AD4F854
S2140024F00480061E72DB04A83C4B98473C4B03EB5B
S21400250046139B788DF817309DF81730DBB2012BF9
S21400251011D004A8374B98479DF81730DBB2052B2F
S2140025205FD0062B23D0002B0CBF6FF012000120CB
S21400253006B0BDE8F087DFF8B8A04FEA46190AEB08
S214002540090303229A7004A82A4B98471AF8093000
S21400255083B1227A003518BF012523680193CDF890
S214002560088017F0800F19D102F00F0318E06FF003
S2140025700F00DDE71E4B03EB4613DA7C9D7C05EB74
S2140025800225ADB2A5B91A4B03EB46160423B37069
S21400259000230125227A21680191029342F08003EC
S2140025A08DF80C308DF80D5001A8134B9847BFE7F7
S2140025B04346A84528BF2B460D4A02EB461696F919
S2140025C00C20002A05DB227A21680191029300255F
S2140025D0CAE79D4294BF00250125DBE76FF0110096
S2140025E0A6E70220A4E700BF11210000CD140000DA
S2140025F034030020DB1400001150000038B50446F8
S21400260041B101290CBF01210221134B9847034613
S214002610184638BD114B9847051E19DB0221204687
S2140026200D4B984703460028F2D0002120460A4B5F
S2140026309847031EECDB0A4B03EB451301229A7006
S2140026400321D970DB690022204698470023DFE784
S2140026506FF01103DCE700BF694E00001121000097
S2140026603403002038B50D4614460E4B98470E4BE3
S214002670002C08BF1C46002813DB012D08D015B11E
S214002680022D0AD038BD094B03EB4010446138BD1B
S214002690064B03EB4010846138BD044B03EB40103F
S2140026A0C46138BD1121000055210000340300200C
S2140026B000B900BE704703684BB18B4209D01B6857
S2140026C01BB19942FBD101207047002070470020C3
S2140026D0704701207047000038B504460D46064B8B
S2140026E0984780F0010039220449C0B2044B98474D
S2140026F023682B60256038BDB726000068ED000013
S214002700B126000003680B600160704770B505468F
S2140027100E4604680A4B984780F001004F2209498C
S214002720C0B2094B98472B681BB92E60336070BD4A
S2140027301C462368002BFBD12660336070BD00BFAB
S214002740B726000068ED0000B126000003680BB154
S2140027501A6802601846704770B50E46154604465D
S21400276078B181B1A2B1012028220D490D4B9847BE
S2140027706B1E1D4209D163600020A060E0602660E9
S21400278070BD0020F0E70020EEE76FF00C0070BD93
S214002790282203490020034B98476B1EEBE700BF37
S2140027A088ED0000B126000038B50D460446A0B1FD
S2140027B0081C18BF012040220A490B4B9847A36803
S2140027C0E2689A420BD0626813402268D35C2B7092
S2140027D0A3680133A360002038BD0020EBE76FF04C
S2140027E0090038BD88ED0000B126000038B50D465A
S2140027F0044651220B49003018BF01200A4B984767
S214002800E368626813402268D554E3686168A2688A
S2140028109A1A8A4284BF591AA1600133E3600020E5
S21400282038BD00BF88ED0000B126000010B5044694
S21400283067220549003018BF0120044B9847E0681E
S214002840A368C01A10BD00BF88ED0000B1260000C6
S2140028500346064A126822B1044A1068034413600D
S21400286070470349014A1160F6E700BFB403002031
S214002870E8500120036B13F0010F13D1038813F007
S214002880020F0DD0036B13F0030FFBD1038823F068
S21400289002031B041B0C0380036B13F0020FFBD117
S2140028A001230380036B13F0010FFBD116220E4B9E
S2140028B002FB01318B88C3808B790372CB798370DE
S2140028C00B8983808B7A8372CB7AC3728B898381E0
S2140028D0CB89C3810B8A03824B8A43820B7DC370EC
S2140028E04B88038000207047ACED000000F13D40AF
S2140028F0A0F5E050C0F3872038B108B58822044917
S2140029000020044B9847002008BD0020704700BFF9
S214002910C4ED0000B126000038B50C460546CE22B0
S2140029200749003018BF0120064B98472C60204608
S214002930054B984701462046044B984738BD00BFD4
S214002940C4ED0000B1260000ED2800007528000048
S2140029500268136B13F0030FFBD113889BB243F08E
S2140029600203138070470368DB88C3F3C103032B9D
S2140029700CBF012002207047036893F82E0000F079
S214002980010070470268136BC3F30B03002BFAD1E8
S214002990137D43F00203137570470368B3F84000D5
S2140029A080B2704700230B6001220A6001604A7201
S2140029B0184670470020704708B580F83820023265
S2140029C0D2000430014B9847002008BD6BDA0000A7
S2140029D0430900F01F00012202FA00F04033024AC9
S2140029E042F82300704700BF00E100E0C0EB001093
S2140029F040010138024BA3FB0030C008013070478D
S214002A00CDCCCCCC4BF6803303FB00F070470000F7
S214002A1010B50D4A13889BB213800C4B98470C4B8D
S214002A2098470C4B984705200B4CA0470B4B9847F4
S214002A3040F6FA70A0470A4A136943F4007313611C
S214002A40084B984710BD00BF0040004165350000A8
S214002A5079350000DD310000D52C00007D35000002
S214002A6000080040DD2A000008B51A4A138C03F05F
S214002A701F0303EB4301184800EB810002EB03122F
S214002A8092F84E2012F0010F0AD11A0102F182428A
S214002A9002F5204292F84E2012F0020F0BD108BD2C
S214002AA01A0102F1824202F52042012182F84E10FC
S214002AB04368984708BD1A0102F1824202F5204297
S214002AC0022182F84E1003EB4303034A52F82330E8
S214002AD09847E4E700A00041C003002030B4334A22
S214002AE0138823F002031B041B0C1380538823F463
S214002AF07C531B041B0C538013889BB243F00103CA
S214002B001380138813F0010FFBD1284B4FF470622B
S214002B101A805A7B02F0FE025A7300205861244A3B
S214002B2002F5C071596302F560729A63214BA1F5F4
S214002B30C0751C68010101F1824202F5204214644E
S214002B401C7982F845405C7982F84640DA88294448
S214002B50A1F88021013008332028EAD11F23012064
S214002B6015499AB213F4004F0BD00133242BF8D139
S214002B700E4A13889BB243F002031380002030BC39
S214002B8070475C0902F01F0200FA02F204F1200509
S214002B9041F82520BFF34F8FBFF36F8F04F1600518
S214002BA041F8252041F82420DFE700BF00A00041BF
S214002BB0C0030020DCED000000E100E0034B03EB67
S214002BC00010C0F888110020704700BFC003002026
S214002BD0034B03EB0010C0F884110020704700BFC1
S214002BE0C003002030B4184A02EB0012D2F8885115
S214002BF0B2F88031C3F30123B2F8802112F4006FDB
S214002C0007D001FA03F42C440F4A02EB0012C2F874
S214002C1088410D4A02EB0012D2F88441B2F88021B6
S214002C2012F4806F07D001FA03F32344064A02EB3E
S214002C300012C2F8843189B2034B03EB0010A0F8EF
S214002C408211002030BC7047C003002010B403017E
S214002C500D4C1C44B4F8802192B242F00102A4F854
S214002C60802103F1824303F520431A6C42F00202EE
S214002C701A6431B1054A1169012303FA00F00843CA
S214002C801061002010BC7047C003002000A0004167
S214002C9008B5014B984708BD692A000008B5014BE6
S214002CA0984708BD692A000008B5014B984708BD3B
S214002CB0692A000008B5014B984708BD692A00003C
S214002CC008B5014B984708BD692A0000016000203E
S214002CD07047000010F0010F02D0054A054B1A623B
S214002CE010F0020F02D0044A024B5A62704700BF2F
S214002CF0062F0100001C0040042F010000B583B021
S214002D00144B186803685A6901921A6A00925A6A44
S214002D10019A12F0200F0BD0019A5A610D4B5A6897
S214002D2003EBC203DB7BDB0902D0436803B19847A1
S214002D30009B13F0020F04D0064B1868836803B19B
S214002D409847044B1B681B68009A1A6203B05DF82C
S214002D5004FB00BF40090020F0B50160324B0B6059
S214002D600368324A5A6003680122DA600368304A10
S214002D701A6102680023C2F8B830026840F20111F6
S214002D80C2F8BC102B4F07F1A00407F1080E7146DD
S214002D903E46F4461F464CF833404F6006EBC305EC
S214002DA0EA7B42F08002EA73013304F2DC54083115
S214002DB0102BF0D11F4B93F8872042F0400283F887
S214002DC0872000225A601C4BC3F8882903F6A813F4
S214002DD01A4A03F50064002142F8043C42F8081B36
S214002DE08033A342F8D1164B93F8282142F0020212
S214002DF083F828210021C3F830110268C2F81CE0CD
S214002E000268B03393610B4B18600E4B4FF4801280
S214002E10C3F88820BFF34F8FBFF36F8FC3F88821A6
S214002E209A600846F0BD00BF920103001B21914046
S214002E300407020040090020185E0020C46F00202E
S214002E40106F002000E100E00268136843F00C03F6
S214002E5013600020704700002DE9F84F82461546A3
S214002E60584BD3F88829584B03EBC203DB7BDB09AE
S214002E701DD0544BD3F88829534B03EBC2035B7B1E
S214002E80DB0914D101204F4E4F4CD6F88839034445
S214002E900F2B88BF103B04EBC303DA7B42F08002A3
S214002EA0DA735B7BDB0902D101301028EDD1464B8B
S214002EB05A6803EBC203DB7BDB097BD040F2DC53B2
S214002EC09D4216D9A5F2DC5001223F4C40F2DB565B
S214002ED0636813440F2B88BF103B04EBC303DB7BF4
S214002EE0DB096BD0B04204D90132A0F2DC50102AC4
S214002EF0EED1354B5A68334BC3F888290E4601F598
S214002F00BB4909F14009DFF8C08008F1A00B2F4F3C
S214002F1029E02D4B5A6803EBC202D4605A6803EBD3
S214002F20C202517B41F0800151735A6801325A60E7
S214002F305B68102B08D1244B00225A6093F8872038
S214002F4042F0400283F88720BFF34F8FDAF8002064
S214002F50136843F4007313600020BDE8F88F06F290
S214002F60DC56B145F0D040F2DC532C469D4228BFDB
S214002F701C46D8F804002246314603FB00B0B8478A
S214002F802D1BC6D0D8F8043008EBC303DC60D8F895
S214002F9004300133C8F80430D8F80430102BDED1E2
S214002FA00023C8F8043098F8873043F0400388F8C8
S214002FB08730D4E76FF01B00BDE8F88F6FF01B007A
S214002FC0BDE8F88F185E0020400900206BDA00008C
S214002FD02DE9F04F83B0019191464FF0FF37002462
S214002FE0454A02E00134102C74D0D2F83031234424
S214002FF00F2B88BF103B02EBC30191F8B01011F005
S214003000010F61D002EBC30191F8B510C1F3801136
S214003010002918BF274602EBC30191F8B510C9096D
S214003020E0D0B7F1FF3FDDD0334A02EBC303B3F87D
S214003030B430C3F30C03994528BF9946B4F1FF3F5B
S21400304018BF04F101084BD1B84649E0D5F8303135
S21400305005EBC30393F8B0206FF3000283F8B020AB
S214003060D5F830310133C5F83031D5F83031102B72
S21400307004BF0023C5F830310136464520D0B4F1F0
S214003080FF3FE3D0BE42E1D3A642DFD8B9F1000F3E
S214003090DCD0CB46B9F1800F28BF4FF0800BD5F8B7
S2140030A030115A46154B03EBC1110198144B984743
S2140030B0019B5B440193DA44A9EB0B09C6E7C246C1
S2140030C0504603B0BDE8F08FB7F1FF3F05D1A046EC
S2140030D03C4605E0B7F1FF3F0AD0B8464FF0FF3454
S2140030E0B8F1000FEBD04FF0000A5646024DC6E787
S2140030F0A0463C46F7E700BF106F0020C0670020E0
S2140031006BDA000070B4002006460146164A012518
S21400311010E002EBC304B4F8B440C4F30C0420443B
S2140031202E4602EBC30393F8B530DB0919D1013103
S214003130102916D0D2F830310B440F2B88BF103B25
S21400314002EBC30494F8B04014F0010F09D002EB70
S214003150C30494F8B54014F0400FDAD1002EE0D046
S214003160D7E770BC704700BF106F0020F0B4002493
S21400317023460DE04A195278C6F10807BA404D5D5D
S21400318035412A436240D4B20633DBB2302B06D038
S214003190DD0813F00706EDD14A5D5440F4E704F06D
S2140031A03F031F2B0DD90368D3F8841004F01F02C9
S2140031B0012404FA02F20A43C3F884200020F0BC7B
S2140031C070470168D1F88000012202FA03F3034336
S2140031D0C1F88030F2E70160002070470122014B01
S2140031E05A7170470008004070B4448A14F0010F0A
S2140031F0FBD04AF215548480448A14F0010FFBD0A9
S21400320053B121F00306B61A14462568A5510434B6
S214003210A51AADB2AB42F8D8438A13F0010FFBD023
S21400322041614AF20353838070BC704708B5036956
S2140032301A8A12F0010F05D001221A82036853B1D0
S214003240984708BD1A8A92B22AB140F25E221A82C4
S214003250436803B1984708BD38B50C46054660B3C9
S2140032601748814214BF002001204B221549164BF7
S21400327098472C612388C3F30D0343F4404343F07F
S214003280C0032380114B1D60114B4FF00051C3F853
S2140032908010BFF34F8FBFF36F8F4FF08042C3F89D
S2140032A08020BFF34F8FBFF36F8FC3F88011C3F832
S2140032B0802119601A60002038BD0020D5E700BFC5
S2140032C000400041DCEE0000B12600004470002003
S2140032D000E100E04FF4007070470369986880B220
S2140032E0704710B40469608A10F0010FFBD043B138
S2140032F001391046134411F8014F00F8014B98426B
S214003300F9D110BC704700002DE9F04FADF5005D17
S21400331085B08246039298460E46DFF8D8B034E071
S21400332001360138B04512D370B112F801CB0DF159
S214003330100E0EEB412E0EF803C00133C3F3080344
S214003340002BEDD10131EBE70392804601E00392BA
S2140033508046DAF81020538A13F0010FFBD0019B49
S21400336053614AF2015393804FF400732A46E919D9
S214003370DAF81000D84705F50075A542F4D108EB39
S2140033800603013B009A9A422CD226F4FF5323F000
S2140033901F03019303F5FF521F32009204AD0DF593
S2140033A0005909F110092C465F1B02954FF4007373
S2140033B02246E11950460E4DA84704F500744C45C8
S2140033C0F4D1029D019BF31A590AC3F30803009A2D
S2140033D09642BED8B8F1000FBBD0039A4046DDF83F
S2140033E00080A2E70DF5005D05B0BDE8F08F00BFD8
S2140033F0E3320000E93100002DE9F04780469146AF
S2140034001F4621F4FF7626F00106B14223D0741A37
S21400341004F500749C4228BF1C46A3B200690F4DF9
S214003420A84706F50076A74213D9DFF830A03D1B63
S214003430B5F5007F28BF4FF40075ABB209EB040268
S2140034403146D8F81000D04706F500762C44A7423F
S214003450EDD8BDE8F0870024E5E700BFE9310000BD
S2140034602DE9F047ADF5007D07460C46164621F4DB
S214003470FF5525F01F054FF40072FF216846274BC5
S2140034809847AC4243D005F5005504F5F05A4FF482
S2140034900079DFF88C804B466A4621463846C0479E
S2140034A0013E30D004F50074A54201D05445F2D157
S2140034B00F2E19D9284631464AF201543A69538AE2
S2140034C013F0010FFBD05061948000F500701039A6
S2140034D00F29F3D805F50075A6F110031B0905EBB7
S2140034E0432506F00F0676B100244FF40079DFF886
S2140034F030804B466A4629463846C04705F5007573
S2140035000134A642F5D80DF5007DBDE8F0870F2EF4
S21400351098BF2546E7D92546CCE700BFB5DA0000B8
S2140035200933000003699A69C1F38F31012303FA56
S21400353001F111420CBF18460020704708B5024B37
S2140035401868024B984708BD447000202D320000D2
S21400355008B5024B1868024B984708BD4470002017
S2140035602D320000034BDA6902F47C52DA61012244
S2140035701A74704700140040704700002E4A136A01
S21400358023F00F0343F0040313622C4B00221A7738
S2140035902B4A9A621A4692F82C3013F0100FFAD182
S2140035A00022264B83F820201A4692F82C3013F07F
S2140035B0040FFAD14222214B1A771A4692F82C3081
S2140035C013F0020FFAD11D4B5A6A5A621A4692F845
S2140035D02C3013F0080FFAD1AA22184B83F82020BB
S2140035E01A4692F82C3013F0040FFAD1134B93F8C6
S2140035F0203013F0010F18D0104A136903F410633B
S214003600B3F5106FF9D10D4A137F43F0800313779B
S21400361002F540625368002BFCD1074A136A23F078
S2140036200F0343F0060313627047044A136913F44A
S214003630807FFBD0E7E700BF001C00400010004082
S21400364080BB807C00B583B00D4B9B78DBB20193CA
S214003650019B13F0020F06D00A4B1B681BB1084AE9
S2140036605068984709E0019B13F0010F05D0054B01
S2140036705B6813B1024A5068984703B05DF804FBD4
S214003680000002416475002070B489B006466C469E
S2140036900D4D0FCD0FC495E80F0084E80F00009B7A
S2140036A0B3420DD0314601AB012053F8042B8A42B9
S2140036B007D001300828F8D1002009B070BC704748
S2140036C00020C0B2F9E700BFFCEE000010B5846928
S2140036D0237E13F0010F03D0A37D13F0010F12D148
S2140036E0237E13F0020F03D0A37D13F0020F0FD139
S2140036F0237E13F0040F15D0638B03F0370363B1FA
S214003700FF23638310BD012323750368984710BD0C
S214003710022323758368984710BDA16A4368C9B21F
S214003720984710BD237EDB0900D110BD8023237689
S214003730C3689847638B9BB26383F6E7054B984252
S21400374005D0054B984204BF044B59607047034BA5
S21400375019607047003000400004004348700020A5
S21400376008B5034B984780002E3000F0FE0008BDD9
S21400377089360000C36913F0010F09D1C36913F03D
S214003780030FFBD1036843F0020303600020704779
S2140037906FF003007047C36913F0030F09D1036885
S2140037A023F04053090701F04051194301600020FF
S2140037B070476FF003007047012913D8C36913F0F0
S2140037C0050F12D110B4446824F0070401F0070373
S2140037D02343436000290CBF0123022313700020FB
S2140037E010BC70476FF00C0070476FF00300704716
S2140037F0C36913F0010F09D1036801290CBF43F018
S214003800804323F080430360002070476FF003007E
S2140038107047000038B50446354B9847002842D01C
S214003820052842D040F26D2232490020324B98479C
S2140038300022E36913F0010F1AD1530099182F4B99
S21400384003EBC103596A01F01C01236813F0020F51
S2140038500BD0E36913F0030FFBD1236823F00203B8
S2140038602360E36913F0020FFBD141F001012160F0
S214003870E36913F0010FFBD11146530098181F4B54
S21400388003EBC003586A20609D6A6560DB6AA3602C
S21400389010F4C04F0BD153001344184A02EBC30276
S2140038A0138EA38113E00022C3E70122C1E7530071
S2140038B01344124A02EBC302108EA38960F30C0372
S2140038C0A38192F83220A38962F34F33A3810B4B76
S2140038D04A00501803EBC00090F83300A0730A4467
S2140038E003EBC20393F8343084F83030002038BD40
S2140038F08936000064EF0000B1260000FCEE0000F0
S21400390070B50D460646CD221749003018BF012077
S214003910164B98472846164B9847044608B120464B
S21400392070BDB56131462846124B98472846124B63
S2140039309847011DC9B2012500F01F0205FA02F2E0
S21400394043099B0003F1604303F56143C3F88020FD
S214003950BFF34F8FBFF36F8FC3F880211A6001301B
S214003960C0B28142E8D1DAE764EF0000B126000079
S214003970153800003D370000613700008269D369C2
S21400398013F0030FFBD1136843F002031360704774
S2140039908369996270478369187E00F0010070475A
S2140039A0836901229A757047836902229A75704767
S2140039B070B50C461646054640F22D2215490030D5
S2140039C018BF0120144B984714F0FD0F0DD1AB69BA
S2140039D02EB901221A75AB6902221A7570BD012232
S2140039E09A75AB6902229A7570BD012C02D0032C21
S2140039F008D070BDAB6916B904221A7570BD0422D2
S214003A009A7570BDAB6916B180229A75F1E780226F
S214003A101A7570BD64EF0000B126000008B5024BB1
S214003A201868024B984708BD48700020CD36000045
S214003A3008B5024B1868024B984708BD487000202E
S214003A40CD36000008B5024B1868024B984708BDF3
S214003A5048700020CD36000008B5024B1868024BAF
S214003A60984708BD48700020CD36000008B5024BC8
S214003A705868024B984708BD48700020CD360000B5
S214003A8008B5024B5868024B984708BD487000209E
S214003A90CD36000008B5024B5868024B984708BD63
S214003AA048700020CD36000008B5024B5868024B1F
S214003AB0984708BD48700020CD36000038B505464A
S214003AC00C4608462E4B984704280CD0002D45D0AF
S214003AD040F68E122B49201C18BF01202A4B98470F
S214003AE06FF00C0038BD002D41D140F68E122549EE
S214003AF00020254B9847E36913F0010F11D1236886
S214003B0013F0020F0BD0E36913F0030FFBD1236809
S214003B1023F002032360E36913F0020FFBD10D23A9
S214003B202360E36913F0010FFBD12C6040F61E12F0
S214003B301449201C18BF0120134B9847134B2360D1
S214003B404FF4003363601D232373002084F8300095
S214003B5001232B7140F2FF13EB8038BD40F68E1226
S214003B6008490020084B98476FF00C0038BD40F617
S214003B708E120449201C18BF0120034B9847BAE751
S214003B808936000064EF0000B12600008C001300A8
S214003B9010B5044660B10068003018BF012040F63A
S214003BA0ED120449044B98472068044B984710BD13
S214003BB00020F4E764EF0000B1260000753700002F
S214003BC038B50D46044668B10068003018BF0120BD
S214003BD040F625220449054B984729462068044BA1
S214003BE0984738BD0020F3E764EF0000B1260000D8
S214003BF09737000038B50C46054698B10068003087
S214003C0018BF012040F654220749084B98472B68F6
S214003C10DA6912F0010F03BFE4B21C7300206FF0E4
S214003C20030038BD0020EDE764EF0000B126000079
S214003C3038B50D46044670B10068003018BF012044
S214003C4040F662220549064B9847221D2946206801
S214003C50044B984738BD0020F2E700BF64EF000031
S214003C60B1260000B937000038B50D46044668B1E5
S214003C700068003018BF012040F67E220449054B3C
S214003C80984729462068044B984738BD0020F3E73C
S214003C9064EF0000B1260000F13700002DE9F8437C
S214003CA081460E460468D1F800804D680779A8B1B1
S214003CB0201C18BF012040F6F2222E492E4B9847B2
S214003CC0E36913F0070F34D1E06910F00300FBD16D
S214003CD0236813F0020F30D0024608E00020EAE71F
S214003CE0013213F0800F12D1B36883421ED9237EAF
S214003CF0DBB213F0040F24D0A16A002DF0D0297097
S214003D00012F91BF0135090A69700235E8E74FF6C1
S214003D10FF736383802323766FF01200237E13F0F5
S214003D20030FFBD003232376BDE8F8839342DED847
S214003D30F4E76FF00300BDE8F8836FF01300BDE80A
S214003D40F8839042CDD813F0010FCAD0B9F8061008
S214003D50B8F1000F0BD098F80010012F91BF08F1B2
S214003D60010898F801E041EA0E2108F10208013046
S214003D70A162B6E764EF0000B1260000034B6FF0C7
S214003D807F425A6005221A60704700BF10E000E0CC
S214003D900B0E03B330B45D1EEDB22846124A6FF028
S214003DA07F4454609460136813F4803FFBD001385E
S214003DB0C0B2FF28F5D1A5EB056501F17F410131C1
S214003DC02944094B596099601A46136813F4803FDA
S214003DD0FBD030BC7047044B596099601A46136894
S214003DE013F4803FFBD0704710E000E070B588B059
S214003DF006466C46124D0FCD0FC495E80F0084E8BA
S214003E000F00009BB3420BD0304601AA012352F8A4
S214003E10041B814205D00133082BF8D100200BE0AB
S214003E20002313F0FF0F09D04FF4A07205490020BD
S214003E30054B98474FF0FF3008B070BD0020FBE7F9
S214003E4080EF0000B4EF0000B126000070B5064613
S214003E500C460846474B98470546F4608E2246496E
S214003E600120464B9847236913F0010F11D12368B0
S214003E7013F0020F0BD0236913F0030FFBD1236856
S214003E8023F002032360236913F0020FFBD1012302
S214003E902360236913F0010FFBD105EB8502384B35
S214003EA003EB8202536A236092F82A10E173128DA4
S214003EB0E2800122227303F00C03082B40D0002B73
S214003EC048D105EB85032E4A02EB83039B8DA38323
S214003ED00023E383012363722A4B9C4204BF2A4BD0
S214003EE01E6005EB8503264A02EB8303B3F92230F6
S214003EF0002B23DB5A0903F01F03012101FA03F309
S214003F002032224941F82230BFF34F8FBFF36F8F24
S214003F1005EB85051A4B03EB8505B5F92230002B1A
S214003F200CDB590903F01F03012202FA03F3174AB8
S214003F3001F1600042F8203042F82130002070BDC8
S214003F4005EB85030E4A02EB8303DB6AE36100237D
S214003F502362BFE7042BBDD105EB8503084A02EBBD
S214003F60830393F82C2022770022627793F82B3075
S214003F70E376AFE7ED3D0000B4EF0000B1260000A9
S214003F8080EF0000003800405070002000E100E0A4
S214003F90C268136913F0030FFBD1136843F00203E2
S214003FA013607047C268136913F0030FFBD11068E3
S214003FB0C0F34000704700207047000010B5C0688E
S214003FC0094B9847044640F2131208490120084B53
S214003FD0984704EB8404074B03EB840494F8220010
S214003FE0054B984710BD00BFED3D0000B4EF000044
S214003FF0B126000080EF0000D129000008B5064B6E
S2140040001868C3689A7A12F0010F00D108BD012221
S2140040109A7203689847F9E75070002000207047AE
S21400402038B5837C03F00F03C27C02F00701012938
S2140040300BD05A0102F18242102182F807115B016F
S21400404003F1824383F8081138BD12F0400F0CD0FC
S214004050C27C6FF38612C2745A0102F1824280213A
S21400406082F80411402182F80511C27C6FF3C30266
S214004070C27409495A018C180025A572A57602F16A
S21400408082436F2483F8074102F1824282F8084196
S2140040908B6E807C984738BD5470002008B520236E
S2140040A003FA01F1C9B2837C03F00F035B0103F14D
S2140040B0824383F80811034B1B6F82680121807CC2
S2140040C0984708BD5470002038B5847CFF2C03D078
S2140040D0C37C13F0400F00D138BDC27C6FF386124C
S2140040E0C274034A156F82682046A847F4E700BFEB
S2140040F05470002030B583B0837C25248DF80440AE
S2140041004A248DF80540FF2B1ED0C47C14F0400FC7
S2140041101AD003F00F04C9B1630103F1824380256E
S21400412083F804510B4602A90B4413F8041C6301E0
S21400413003F1824383F80711630103F1824383F896
S21400414008111146054B984703B030BD630103F1D3
S2140041508243402583F80551E4E700BFC9400000CC
S21400416030B583B0837C03F00F0304228DF804205F
S21400417008228DF805205A010C4691B302F18241BF
S21400418091F80051C5F3021502EB0411324A0A44B5
S214004190917AC9B2022D2CD011F0020F45D0C57C01
S2140041A0917A6FF34101917202AA224412F8041C1C
S2140041B05A0102F1824282F807115B0103F1824341
S2140041C083F8081105F00703012B43D1C37C13F0D5
S2140041D0400F3FD0D9098C423CD000221F4B984755
S2140041E038E0590101F1824191F8005105F00705C8
S2140041F0CAE711F0010FCFD0917A6FF300019172E8
S21400420002AA224412F8041C5A0102F1824282F8E1
S21400421007115B0103F1824383F808110422211C75
S21400422018BF01210D4B984714E004EB43010A4ADE
S21400423002EB01120021917202AA144414F8041C25
S2140042405A0102F1824282F807115B0103F18243B0
S21400425083F8081103B030BD54700020F54000000C
S2140042602DE9F0410C4D05F1740405F594754FF0F9
S21400427003080A4FFF2641462046B847A674002387
S214004280E3741434AC42F6D1602219460248044B5B
S2140042909847BDE8F08100BF54700020C940000078
S2140042A0B5DA00002DE9F0410546847C04F00F04E1
S2140042B08846002900F09F80584B03EB441358694A
S2140042C0C0F30D0E2B8A40F2FF32934200F08D8031
S2140042D0013B98B2EF7C07F00707B8F1000F05D056
S2140042E0620102F18242022382F80731A9680EEBCE
S2140042F00103AB606E68B3423FD2F61AB6B2EA7CF0
S21400430012F0200F2DD02A8A964228BF164629681A
S21400431032461944E868424B9847EA683F4B03EB3D
S21400432044131A613D4B03EB44135A6966F30D02BE
S2140043305A615A696FF39B325A61B8F1000F08D17F
S214004340012F0CBF4E224A22630103F1824383F8F9
S2140043500921640104F18244802384F80531BDE814
S214004360F081B6F5005F28BF4FF4005629680B446D
S2140043702A4A02EB44121361D4E7EB7C13F0100FC9
S2140043800FD0EB7C6FF30413EB74244B03EB441356
S2140043905A696FF30D025A615A696FF39B325A617C
S2140043A0CBE7012F4FEA441404F182440CBF4B23A1
S2140043B04A2384F808312A8A00EA0E039A4205D076
S2140043C000212846174B9847BDE8F081EB7C6FF339
S2140043D08613EB74114BDB6EA968A87C9847D0B99E
S2140043E0EB7C43F04003EB74EAE7EF7C07F007074B
S2140043F040F2FF3074E7038A40F2FF32934207D15F
S214004400EF7C07F007074FF0000E40F2FF306DE735
S2140044104FF0000E5CE7BDE8F08100BF547000204E
S2140044206BDA0000C94000002DE9F84F0446857C91
S21400443005F00F058946002956D0744B03EB45134B
S2140044405A68C2F38D3A5F68C7F30D07BB46068A03
S21400445040F2FF339E4200F0BA80013EB6B206EA52
S2140044600B0794F8138008F00708B9F1000F05D081
S2140044706B0103F18243012283F80721E37C13F0EA
S214004480200F0DD06268002A37D0A068121A92B2A8
S2140044902368BA4228BF3A46E16818445C4B9847FE
S2140044A0636853B3B9F1000F40D0228ABA423DD9AF
S2140044B0E37C6FF30413E374A3685B44A360B8F172
S2140044C0010F4FEA451303F182430CBF2D2225222C
S2140044D083F8082115B9E2684C4B1A600021204683
S2140044E04C4B9847BDE8F88F068A40F2FF339E4251
S2140044F07BD04FF0000BDA46AFE7E37C13F0100FEB
S2140045006CD0E37C03F0EF0343F02003E374E06831
S2140045103E496A018B188850218A5A6861F39B329B
S2140045205A605A686FF30D025A601DE0A268524442
S214004530A2609342C3D99B1A9BB2E17C11F0200F74
S21400454026D0228A934228BF1346E0686A012F4984
S21400455088502E4A02EB4512516863F39B31516036
S21400456053686FF30D035360B9F1000F08D1B8F12B
S214004570010F25D025226B0103F1824383F8092120
S2140045806D0105F18245402385F80431BDE8F88FBA
S214004590218A8B420AD9B3F5005F0ED823EA0603B8
S2140045A021680A44690119484250D2E78B42F7D283
S2140045B0E17C41F02001E174F2E74FF40053EFE7AD
S2140045C0124B03EB451300229A762D22D3E7C7F34E
S2140045D0090790F8138008F0070849E7B9F1000FBB
S2140045E00BD1A3685344A36069E790F8138008F0E2
S2140045F007080027BB46BA4640E7238ABB423FF679
S21400460057AFA3685344A36059E700BF5470002017
S2140046106BDA0000C94000002DE9F8434FF08243F2
S2140046201E8CB6B246B1914D0024A5F17407DFF892
S2140046305892DFF85882D3E0998B1B8B9BB20B40C5
S21400464013F0040F1DD113F4007F23D113F0800F55
S21400465047D113F0700F4FD113F0080F6ED113F03F
S214004660010FE0D04FF0824340F201229A839A82F3
S21400467070221A837E4B5B6E002104209847BDE8AB
S214004680F88304224FF082439A83794B1B6E984737
S214004690BDE8F8834FF0824340F201229A839A8263
S2140046A070221A83724B1B8903F00F03032B0ED064
S2140046B06F4B1B8D03F00F03032B08BF012207D09F
S2140046C000216B4B5B6E03209847BDE8F883002201
S2140046D0674B03EB42131989C1F30A1100221A81B2
S2140046E0EFE780224FF082439A83614B5B6E002196
S2140046F005209847BDE8F8834FF0824370229A83DE
S2140047009A8240F201221A835A4B93F8203013F013
S214004710010F0DD0574A136903F41063B3F5106FF9
S214004720F9D1534B5B6E002102209847BDE8F88311
S214004730504A136913F4807FFBD0F2E74FF08243B0
S214004740002483F8004108229A8370229A8240F25D
S21400475001221A83484B9847454B5B6E2146012041
S2140047609847BDE8F88311F0100F09D111F0400FFB
S21400477008D111F0200F2FD00021404B98472BE096
S214004780C84729E001213D4B984725E011F0400F2E
S21400479011D111F0080F12D111F0020F12D103F04F
S2140047A00703012B18D111F0040F0FD111F0100FD1
S2140047B012D0C84710E00121304B98470CE0012189
S2140047C0C04709E001212E4B984705E00021C0476D
S2140047D002E00021294B984701341435092C42D0B9
S2140047E02846AB7CFF2BF7D003F00F03012199403E
S2140047F03142F1D0590101F1824101F58071C97948
S2140048005B0103F1824393F809311940E4D004EBCD
S214004810840207EB820292F8873003F04702012AEF
S214004820A1D013F0800FB1D111F0200FD1D111F02B
S214004830040F0ED111F0010F0ED103F00703012B68
S214004840CAD111F0080F0BD111F0100FC4D0C84711
S214004850C2E70021C047BFE701210A4B9847BBE7E4
S2140048600121C047B8E7BDE8F88300BFC870002044
S2140048705470002000100040614200009D4000007F
S214004880A5420000294400002140000061410000CC
S21400489008B54FF082439B7813F0010F19D14FF003
S2140048A082431B7813F0020F0FD04FF082429378AA
S2140048B013F0030FFBD14FF08242137803F0FD0391
S2140048C01370937813F0020FFBD101224FF082434E
S2140048D01A704FF08242937813F0010FFBD11F4BF2
S2140048E01F4A1A665A669A66DA661A671D4B984712
S2140048F01D4B1968C1F34413C1F3822211F01F0146
S21400490025D01F2908BF09211BB31F2B08BF192359
S2140049100AB3072A08BF062203F01F0343EA8113DF
S214004920120302F4E04213434FF082421385D37819
S21400493043F00303D370D37843F00C03D3700423FF
S2140049401370064B536201231381002008BD092112
S214004950DAE71923DCE70622DEE700BF5470002002
S2140049601D40000061420000840080004FF082433A
S2140049709B7813F0030F1FD14FF082431B78DBB2F6
S21400498013F0020F04D143F002034FF0824213707B
S2140049900B4B4FF480329A604FF400329A604FF41B
S2140049A080229A604FF400229A6040F28D224FF0E7
S2140049B082431A83002070476FF01000704700BFD4
S2140049C000E100E04FF08242138923F001031B044C
S2140049D01B0C1381704740F080004FF082439872A2
S2140049E070470000F0B54FFA80FE10F00F054DD06E
S2140049F0BEF1000FB4BFAC1C2C4601F003012B46E1
S214004A00022D47D96FF01100F0BDBEF1000F1BDB81
S214004A1003EB4305374E56F82550002D5ED103EBC9
S214004A204303344D55F82370334DA600331905EB78
S214004A308303C3F88070A3F88420013183F88710BD
S214004A4083F886000020F0BD03EB4305294E06EBF5
S214004A5085056D6835B903EB4303264D05EB8303E7
S214004A605F68E1E703EB4305224E06EB85056D899B
S214004A709542F0DA6FF01200F0BD6FF01300F0BD53
S214004A806FF01300F0BD6FF01200F0BD01F00301EF
S214004A900024234604EB8406174F07EB860696F899
S214004AA08660FF2EE9D10029AFD125B1BEF1000FF7
S214004AB0A4BF0235EDB205EB85050F4E06EB850566
S214004AC095F88650FF2DDBD103EB4305094E56F8CB
S214004AD02550002DD7D0BEF1000FB5DB03EB430504
S214004AE0044E06EB85052D89954298DA6FF0120084
S214004AF0F0BD00BFC8EF000054700020F8B547B204
S214004B0010F00F060ED0002FB4BFB31C3346022E93
S214004B1000D9F8BD1D46013303EB8303244A02EB9C
S214004B20830E02E0DFF894E0002505EB8503214ABA
S214004B3002EB830393F88620FF2AEAD0044603227A
S214004B40F90F70461C4B984705EB8503194A02EB94
S214004B50830393F8873003F00703012B16D0002F4A
S214004B601BDB600100F1824090F8003103F0F8038F
S214004B7080F800310F4BAA00511903EB8101002089
S214004B8081F88700FF2281F88620C2E7600100F1E5
S214004B908240002380F80031ECE7760106F1824679
S214004BA096F8003103F08F0386F80031E2E700BF85
S214004BB0B470002054700020F5400000C87000203B
S214004BC0F0B547B210F00F0000F0A680002FB4BF7B
S214004BD0831C03460646420102F1824292F80041D7
S214004BE0E4B2022840F29F806FF01100F0BD14F08E
S214004BF0770F40F0888002F18242112182F800117E
S214004C00974C04EB8E01B1F88440964901EA843152
S214004C10B4F5007F00F2CC80B4F5807F00F20A8104
S214004C20802C00F2F980402C00F20B81202C00F240
S214004C30FA80102C00F20C81082C94BF0027012764
S214004C4041EA07714160C4F30D01B7E014F0700F3C
S214004C505CD1834D9F00F91805EB810191F8871010
S214004C60090101F070010C4302F1824282F8004112
S214004C703B4405EB8305B5F88430C3F30D01B3F56B
S214004C80007F0FD8B3F5807F19D8802B19D8402B1A
S214004C9019D8202B19D8102B19D8082B94BF00230D
S214004CA0012300E0072341EA03734361802382F86F
S214004CB004316B4B03EB46160020B076F0BD06239E
S214004CC0F1E70523EFE70423EDE70323EBE70223F1
S214004CD0E9E7072143EA01734360402382F8053180
S214004CE05F4B03EB46160020B072F0BD0621F1E7DD
S214004CF00521EFE70421EDE70321EBE70221E9E7D1
S214004D006FF01100F0BD6FF01300F0BD6FF01300F0
S214004D10F0BD6FF01300F0BD4FF0824393F80041F2
S214004D20E4B20026334603EB83024D4901EB8202D0
S214004D3092F88650FF2DE3D07201881803EB830E9D
S214004D4001EB8E0191F8871001F0070101293FF46D
S214004D504EAF002FFFF67AAF14F0070FD9D1404DB3
S214004D609F00F91805EB810191F8871001F0070103
S214004D700C4302F1824282F800413B4405EB830576
S214004D80B5F88410374B03EA8133B1F5007FA0D81D
S214004D90B1F5807FAAD88029AAD84029AAD8202988
S214004DA0AAD81029AAD8082994BF0021012191E782
S214004DB041F0E0414160C4F30D01072741EA077165
S214004DC04161402182F80511802082F80401244ABE
S214004DD002EB46160020B072B07605F00F0503EB26
S214004DE0830302EB8303D3F880606D015319565199
S214004DF05A6864F39B325A605A6860F30D025A6030
S214004E0005F18243B02283F8042183F805111D467C
S214004E10102385F80931F0BD41F0A0414160C4F38C
S214004E200D010527CAE741F040514160C4F30D016A
S214004E300327C3E741F0C0414160C4F30D010627D4
S214004E40BCE741F080414160C4F30D010427B5E79B
S214004E5041F000514160C4F30D010227AEE700BFE8
S214004E605470002000C0FF0F70B443B2DC0F10F087
S214004E700F0008D0002BB4BF831C0346022803D9BA
S214004E806FF0110018E00023012917D000293AD04E
S214004E9003EB8303454A02EB830393F8863003F063
S214004EA00F035B0103F1824393F806211023A3400E
S214004EB01A4214BF0120002070BC70471025A54080
S214004EC0EDB23A499E00F21801EB820292F8862073
S214004ED002F00F02500100F1824080F805512020B8
S214004EE000FA04F4E4B2520102F1824282F8094167
S214004EF0334401EB830393F8872042F0080283F8DB
S214004F0087200020D8E703EB8302284901EB8202C2
S214004F1092F8862002F00F02510101F1824191F8C9
S214004F2006511020A04005423CD0C0B281F80401D2
S214004F302020A040C5B281F8085191F8072102420E
S214004F4007D081F80751012202FA04F4E4B281F88E
S214004F50044103EB8302154800EB820292F8872097
S214004F6002F00702012A0CD003EB83030F4A02EB80
S214004F70830393F887206FF3C30283F8872000200B
S214004F809AE791F8062112F0300F0DD103EB830259
S214004F9000EB820393F887206FF3C30283F8872021
S214004FA0002089E7002087E7002085E7547000206E
S214004FB030B400F00F046301144AD018D558406886
S214004FC0C0F30D00022C17D8C9B103F1824393F841
S214004FD00021D2B2112A15D193F8072112F0100F32
S214004FE002D1002030BC70472C686A680C604A60AA
S214004FF0102283F80721F5E76FF01100F2E76FF053
S2140050001100EFE76FF01200ECE700BF54700020CD
S2140050102DE9F04F83B0037A5EB213F00F0300F071
S214005020C280002EB4BF9A1C1A461446694901F184
S2140050306007551C05EB850507EB850702EB82022A
S21400504001EB8202B2F8842040F2FF318A4225D07A
S214005050551EADB241680D40022B00F292800368E7
S214005060B3F1005F1CD303EB010CDFF880E1F445DD
S21400507016D813F0030F13D1002E2ADB8A4200F253
S2140050809C804DB304EB8403524A02EB8303D3F8AF
S2140050908030002B7BD04FF000080CE01546D9E797
S2140050A004EB84034B4A02EB8303D3F88030002BD7
S2140050B06AD04FF0010804EB8403464A02EB8303F0
S2140050C093F8873013F0080F09D0022003B0BDE82C
S2140050D0F08F4FF00008EEE74FF00008EBE782464F
S2140050E001A83D4B984704EB84033A4A02EB83033E
S2140050F093F8873013F0400F3CD104EB8409354B0E
S21400510003EB890999F8873043F0400389F8873024
S21400511001A8324B9847DAF80030C9F87430DAF84C
S2140051200430C9F878300023C9F87C30F20F99F8BB
S214005130873062F3C71368F3451389F887309AF807
S2140051400930E3B1B5FA85F56D0904EB8404214B0B
S21400515003EB840494F8873065F3041384F88730EF
S214005160002E4FF000013846B4BF1D4B1D4B98472C
S2140051700020ABE701A8194B98470120A6E70025B9
S214005180E3E76FF01100A1E76FF012009EE76FF003
S21400519011009BE76FF0120098E74168C1F309051C
S2140051A0114F00245BE70B4AB2F8842040F2FF312F
S2140051B08A42F2D00C4F00244AE704EB8403054AE7
S2140051C002EB8303D3F88030002BE3D04FF00108C6
S2140051D071E700BF54700020CD140000DB140000FF
S2140051E0A542000029440000C8700020FF1F0320CD
S2140051F0064B002908BF1946012803D008B9044BFE
S21400520019667047024B5966704700BF1D40000084
S21400521054700020094B002908BF1946034630B1D8
S214005220012807D0022804BF054B19677047044BB6
S21400523099667047024BD966704700BF1D40000054
S2140052405470002008B5014B984708BD1946000069
S21400525008B5014B984708BD1946000008B5014B34
S214005260984708BD1946000008B5014B984708BD89
S2140052701946000010B5044630B30068003018BF69
S214005280012050221449154B984723689A6812F05B
S2140052900E0FFBD11A78D20918D19A6812F00E0FA9
S2140052A0FBD11A7812F0020F13D15A7802F00F02CF
S2140052B042F0B0025A702268537803F0F00343F0CD
S2140052C00B035370002010BD0020DAE76FF01000CB
S2140052D010BD6FF0100010BDECEF0000B12600000E
S2140052E0F8B50E461446054690B30068003018BF61
S2140052F001207A223649374B98472B68996811F077
S2140053000E0FFBD11A78D20958D1996811F00E0FFA
S214005310FBD11A7812F0020F53D1A4FB06673C4665
S214005320002554EA05024FD1B6F57A3F38D011D998
S214005330B6F5FA1F38D027D9B6F5FA0F38D0B6F535
S2140053407A0F37D0B6F57A1F30D06FF00C00F8BD64
S2140053500020CEE7B6F5FA4F1ED00DD8B6F5FA5FA8
S2140053602AD0B6F57A5FF0D101215A7802F0F00221
S2140053700A435A700020F8BDB6F57A4F0ED0B6F53F
S214005380FA3FE2D10421F0E7B6F5FA2F0AD0B6F5D7
S2140053907A2FDAD10721E8E70221E6E70321E4E7DE
S2140053A00521E2E70621E0E70821DEE70921DCE740
S2140053B00A21DAE70B21D8E70021D6E76FF01000C4
S2140053C0F8BD6FF01000F8BD6FF00C00F8BD00BF20
S2140053D0ECEF0000B126000010B5044690B100685E
S2140053E0003018BF0120FB220749084B9847226867
S2140053F0936813F00E0FFBD1137843F0020313707B
S214005400002010BD0020EEE7ECEF0000B126000003
S21400541010B50446D0B10068003018BF01204FF424
S21400542084720D490D4B984723689A6812F00E0F48
S214005430FBD11A78D2090BD19A6812F00E0FFBD165
S2140054401A7802F0FD021A70002010BD0020E6E770
S2140054506FF0100010BD00BFECEF0000B12600009A
S21400546010B5044668B10068003018BF012040F24D
S21400547019120549054B98472368A5221A73002080
S21400548010BD0020F3E700BFECEF0000B1260000DF
S2140054902DE9F04F8DB002F00303099301F01F04CD
S2140054A0012303FA04F44A09A34D029205EBC2173E
S2140054B0BC614209039200F01F0003FA00FA019251
S2140054C005EBC215C5F818A0C5F808A01FFA8AF3A0
S2140054D0079343F080430593AB624FEA1A43089361
S2140054E043F040430693AB620520944EB047052038
S2140054F0B047C5F814A00520B0477C610520B0472A
S21400550007274026DFF83092019A09EBC21B8B4D25
S214005510029901FA07F3009316F0680F14BFCBF850
S21400552018A0CBF814A00520A847009B09EB030899
S214005530C8F818400520A847C8F814400520A84712
S2140055407608013FE8D17C4D039B05EBC316C6F8F1
S21400555014A00520794FB847029A05EBC215AC6136
S2140055600520B8476C610520B847039BDB0103F1B3
S214005570824303F500430493C3F804A0079941F05F
S214005580804141F400310791B162089941F04041F1
S21400559041F400310891B1620520B847AC6105209E
S2140055A0B8470AA8664B9847049A1268336A356962
S2140055B05D4015405D400AA8624B98471AEA050F01
S2140055C040F087805C4D029B05EBC3135C610520B1
S2140055D05A4EB047039A05EBC215C5F808A0059ABF
S2140055E0AA62069AAA620520B047099A530103F1F7
S2140055F08002009208258027DFF83CB1019A0BEB69
S214005600C2120192029B4FEAC319D046A246009BE3
S2140056101F42019B14BFC3F81880C3F814800520EE
S214005620B0470BEB0904C4F818A00520B047C4F82F
S21400563014A00520B0477F08013DE8D15446049BDE
S214005640C3F804803C4E039A06EBC215079AAA627A
S214005650089AAA620520394FB847029A06EBC21686
S214005660B4610520B8470BA8354B9847049B1A68C9
S2140056702B6A2D695D4015405D400BA8314B98475D
S21400568018EA050F3ED12C4D029B05EBC3177C6133
S21400569005202A4EB047039B05EBC315C5F80880C6
S2140056A0059BAB62069AAA620520B047BC6105203E
S2140056B0B047C5F818800520B047C5F80880059B98
S2140056C0AB62069AAA620520B04700200DB0BDE87E
S2140056D0F08F194D029B05EBC3139C610520B8475C
S2140056E0039B05EBC315C5F818A00520B847C5F8F9
S2140056F008A0059BAB62069BAB620520B8476FF01F
S2140057000100E3E70C4D029B05EBC3139C610520EB
S214005710B847039B05EBC315C5F818800520B847A6
S214005720C5F80880059BAB62069BAB620520B847B0
S2140057306FF00200CAE700BF008000412D15000090
S214005740CD140000DB140000002B00F07C812DE956
S214005750F04F8FB0002A00F079810493039201F095
S2140057601F04012303FA04F44A09984D029205EB3C
S214005770C217BC614209059200F01F0003FA00FA46
S214005780009205EBC215C5F818A0C5F808A01FFAC8
S2140057908AF3089343F080430693AB624FEA1A43BA
S2140057A0099343F040430793AB620520884EB04709
S2140057B00520B047C5F814A00520B0477C61052039
S2140057C0B04707274026DFF80492009A09EBC21B71
S2140057D07F4D029901FA07F3019316F0680F14BF84
S2140057E0CBF818A0CBF814A00520A847019B09EB1E
S2140057F00308C8F818400520A847C8F81440052034
S214005800A8477608013FE8D1704D059B05EBC31607
S214005810C6F818A005206E4FB847029A05EBC215C9
S214005820AC610520B8476C610520B847059BDB01D5
S21400583003F1824B0BF5004BCBF804A0089B43F01A
S214005840804343F400330193B362099B43F0404323
S21400585043F400330893B3620520B847AC610520D3
S214005860B8470BA85B4B9847DBF80020336A3569CE
S2140058705D4015405D400BA8574B98471AEA050F48
S21400588014D1029DEB0103F1824303F500435C61F2
S21400589005204F4B98470023039A1370082680274D
S2140058A04A4A02EBC519DFF828811FE0474D029BE4
S2140058B005EBC3139C610520B847059B05EBC31594
S2140058C0C5F818A00520B847C5F808A0069BAB6227
